:100000000C9415020C945C020C945C020C945C023F
:100010000C945C020C945C020C945C020C945C02E8
:100020000C945C020C945C020C94F51E0C94AA1DBA
:100030000C9474140C945C020C945C020C945C029E
:100040000C945C020C945C020C945C020C945C02B8
:100050000C945C020C9436140C945C020C945C02BC
:100060000C945C020C945C020C945C020C945C0298
:100070000C945C020C945C020C945C020C945C0288
:100080000C945C020C945C020C945C020C945C0278
:100090000C945C020C945C020C945C020C945C0268
:1000A0000C945C020C945C020C945C02160616061E
:1000B00050065006A7064E084E084E08C306A10774
:1000C000B207B2076B0C760CA40C0B0D0E0D130DC2
:1000D000160D190D491649165C165C1652165C165B
:1000E0005C165C164916491657165C165C165716B0
:1000F000C51BEC1B821DEC1B821D341C571C821D72
:10010000461D591DAA00AE00A9000000530054006E
:10011000550056005F006000610057005C005D0004
:100120005E00000059005A005B00580062000000A9
:10013000630000000000000000000000000000005C
:1001400000000000000000000000000000000000AF
:10015000000000000000000000000000000000009F
:10016000000000000000000000000000000000008F
:10017000000000000000000000000000000000007F
:100180007E0F00D4FFFFFFC70000007800000000D2
:10019000000000002A2B28000000000000000000E2
:1001A0000000000000000029000000002C1E342088
:1001B000212224342627252E362D3738271E1F20AE
:1001C0002122232425263333362E37381F040506F3
:1001D0000708090A0B0C0D0E0F1011121314151637
:1001E0001718191A1B1C1D2F3130232D3504050635
:1001F0000708090A0B0C0D0E0F1011121314151617
:100200001718191A1B1C1D2F3130354C0001010124
:1002100001010101010102020202020202020203C3
:100220000303030303030304040404040404050593
:100230000505050606060606070707070708080856
:1002400008090909090A0A0A0B0B0B0C0C0C0D0D05
:100250000D0E0E0E0F0F0F1010111111121213139D
:100260001414151516161717181819191A1A1B1B16
:100270001C1D1D1E1E1F2020212222232424252672
:1002800026272829292A2B2C2D2D2E2F30313232AA
:10029000333435363738393A3B3C3D3E3F404142B6
:1002A000434445464748494A4C4D4E4F505153549C
:1002B000555658595A5B5D5E5F6162646566686950
:1002C0006B6C6D6F7072737577787A7B7D7E8082D0
:1002D000838587888A8C8E8F91939596989A9C9E19
:1002E000A0A2A3A5A7A9ABADAFB1B3B5B7BABCBE29
:1002F000C0C2C4C6C9CBCDCFD1D4D6D8DBDDDFE2F6
:10030000E4E7E9EBEEF0F3F5F8FAFDFF050109800B
:10031000A101850319012AB700150126B70095012F
:1003200075108100C0050C0901A101850419012A7D
:10033000A002150126A002950175108100C00501DB
:100340000906A1018505050719E029E71500250122
:100350009508750181020507190029EF150025018F
:1003600095F07501810205081901290595057501AA
:100370009102950175039101C005010906A10105CE
:100380000719E029E71500250195087501810295F7
:1003900001750881010507190029FF150026FF00D6
:1003A000950675088100050819012905950575014F
:1003B0009102950175039101C009023B0002010001
:1003C000A0FA090400000103010100092111010044
:1003D000012240000705810308000A090401000109
:1003E00003000000092111010001226D00070582B0
:1003F0000320000A12011001000000084B41150003
:100400000200010200010A035000530031003700CE
:1004100000001203410054004C0041004E00540003
:100420004900530000000403090411241FBECFEF4C
:10043000DAE0DEBFCDBF04B603FE27C0809195038E
:1004400090919603A0919703B09198038730904BB9
:10045000A740B04BD1F410929503109296031092DE
:1004600097031092980314BE84B7877F84BF0FB69A
:10047000F894A89580916000886180936000109244
:1004800060000FBEE0E0F8E3099511E0A0E0B1E004
:10049000E0E4F3E402C005900D92AC3EB107D9F759
:1004A00023E0ACEEB1E001C01D92A539B207E1F73F
:1004B0000E94C0080C949E210C9400008F929F9281
:1004C000AF92BF92CF92DF92EF92FF920F931F9362
:1004D000CF93DF93CDB7DEB72A970FB6F894DEBF80
:1004E0000FBECDBFFC01D080118183819481892B07
:1004F00039F01F3F39F491E00FEFD01203C003C071
:1005000091E001C090E090FD28C67F0185E0DE010A
:10051000169601900D928A95E1F7F70122818E815E
:100520009F81222349F00E94EA15082F682F8E81AF
:100530009F810E948B1603C00E946016082FE12F36
:10054000F0E01BE0019FE00DF11D1124EE0FFF1FF5
:10055000EE0FFF1FED0DF11DEE0FFF1FEC5FFE4FC5
:1005600005911491F7018281882369F0C801825EA8
:100570009C45059740F46EE1600F6093F8018CE0B4
:1005800090E00E94432117FF8CC0F70182818823ED
:1005900009F487C0E0910702F0910802309729F032
:1005A0000190F081E02D099501C080E08695817071
:1005B0008093EF019091F801913029F4882319F08C
:1005C00089E30E94F72080912D038093EE01109221
:1005D0002D038091F801813071F048F08230C1F034
:1005E0008430E1F486EE0E94F72088E115C082EEA7
:1005F0000E94842013C083E00E94332088E10E947F
:10060000842088E10E94522083E00E94282006C0B6
:1006100082EE0E94842087E50E94F7208FE39CE908
:100620000197F1F700C000005801E894B7F84CE0DA
:10063000C42ED12CC5010C2C02C0969587950A9426
:10064000E2F78F7096EF980F963010F0805D01C042
:10065000895A0E944E1394E0C91AD108ECEFCE16C5
:10066000EFEFDE0639F78091F801813039F078F04C
:10067000823069F0843089F488E20DC08CE20E94F7
:10068000F7208091EF01882341F089E304C082EED6
:100690000E94522002C00E94F7208091EE018093B8
:1006A0002D03043FFCE51F0759F190F4093D3CE59B
:1006B0001307E9F00A3D8CE51807A1F1083D9CE518
:1006C0001907B1F506E221EE41EE68ED7CE514C0B4
:1006D000063FECE51E0701F1C8F0073F2CE51207C5
:1006E00039F507E225EE46EE67EF7CE505C007E247
:1006F00025EE45EE69ED7CE5C7010E94140F0EC59D
:1007000006E221EE40EE64EF7CE5F6CF07E225EE4F
:1007100044EE65EF7CE5F0CF06E221EE42EE66EFB7
:100720007CE5EACF08E221E045EE6AED7CE5E4CF26
:10073000F7018281882309F43EC11092F001023052
:10074000FCE51F0708F421C106312CE5120730F043
:10075000C8018B5F9C45099708F017C10E94FA14E5
:100760009093F7018093F60100313CE5130709F4FB
:10077000C3C008F041C008309CE5190709F49AC0CD
:10078000F0F40430FCE51F0709F487C068F4023078
:100790003CE5130709F477C003301C4509F0E5C0B8
:1007A0008091F601826076C006309CE5190709F455
:1007B0006EC008F07BC08091F60188606BC00C3081
:1007C000FCE51F0709F485C068F40A303CE513070F
:1007D00009F474C008F079C00E9451198091F601A3
:1007E000806858C00E309CE5190709F476C008F0FF
:1007F0007FC08091F6018BC00C3FFCE51F0709F418
:100800004FC018F503313CE5130709F47DC078F4B7
:1008100001319CE5190709F473C002311C4509F048
:10082000A4C00E9451198091F6018F7733C0053121
:10083000FCE51F0709F472C008F486C00B3F1C4595
:1008400009F093C08091F7013EC001158DE51807AE
:1008500009F45FC058F40E3FECE51E0709F444C0EC
:1008600008F43FC08091F70182602DC002302DE571
:10087000120709F475C008F45DC003301D4509F086
:1008800074C060E06EC08091F601816003C0809109
:10089000F60180618093F60168C08091F60111C075
:1008A0008091F70182608093F7015FC08091F6012B
:1008B0008062F0CF8091F6018064ECCF8091F601E8
:1008C00088608460E7CF8160EECF8091F6018E7FF3
:1008D000E1CF8091F6018D7FDDCF8091F601877F9A
:1008E000D9CF8091F70118C08091F7018D7FDBCFC0
:1008F0008091F6018F7ECECF8091F6018F7DCACF99
:100900008091F6018F7BC6CF8091F601877F8B7F28
:10091000C1CF8091F7018D7F8E7FC5CF8091F60189
:1009200082FB222720F991E0922790FB82F990FB2D
:1009300083F9B0CF8091F701982F909591708E7FB9
:10094000892B90FB81F9AFCF0E9451198091F6015C
:1009500087FB222720F991E0922790FB87F99ACF15
:1009600061E08EE090E00E9443216091F6011091D9
:10097000F70184E090E00E944321612F82E290E041
:100980000E9443210E945119C9C380912D03063151
:100990002CE5120709F58A7A91E009F490E090932A
:1009A000F101882311F065E301C069E284EB92E074
:1009B0000E94C5140EC006311C4509F0F1C080919B
:1009C000F101882309F4C7C365E384EB92E00E9438
:1009D0009D140E947C15A2C382720B3C9CE51907F2
:1009E00009F474C098F5063CFCE51F0709F45AC0E9
:1009F000B8F4043C3CE5130709F44AC008F04DC0C4
:100A0000033CECE51E0709F075C090918E0381E070
:100A1000892780938E03109202010E949D0F7EC34E
:100A2000083CFCE51F0709F447C008F440C0093C36
:100A30003CE5130709F445C00A3C9CE5190709F099
:100A400059C04AEC5FE067ED7FE049C00F3CECE540
:100A50001E0709F44AC058F40D3C2CE51207D9F1E1
:100A600008F040C04FEA5FE065EA7FE038C0073D2C
:100A70008CE5180738F4013D1C4508F04FC361E0D0
:100A800083E035C00E35EDE51E0709F447C332C0DB
:100A900049E250E163E370E122C043E350E169E2DF
:100AA00070E11DC04EEF5FE068E070E118C048E003
:100AB00050E16EEF7FE013C044EE5FE061EF7FE056
:100AC0000EC041EF5FE064EE7FE009C047ED5FE0FC
:100AD0006AEC7FE004C045EA5FE06FEA7FE00E94D5
:100AE000930F1CC361E081E002C061E082E00E94DC
:100AF000121014C30B35FDE51F0709F44CC058F460
:100B000001153CE51307C1F00F3D1C4509F048C035
:100B10000E940B1503C30C359DE5190709F43DC070
:100B20000D351D4509F03CC08091F70182FB8827F7
:100B300080F991E0892732C00E945119FFEF04E348
:100B40001CE0F15000401040E1F700C0000081E0DF
:100B50008093E00080E28093D8001092C9008FE17A
:100B60009EE40197F1F700C0000087E090EBDC0104
:100B70008093950390939603A0939703B093980363
:100B80009CE088E10FB6F894A895809360000FBEB2
:100B900090936000FFCF81E001C080E00E94D015FB
:100BA000F701828100811181882349F0C8010E94E8
:100BB000EA15D82E682FC8010E948B1604C0C80100
:100BC0000E946016D82EB8018D2D0E94A3118C01B1
:100BD000982EF701B280A580A2943FE0A3228091D5
:100BE0002A03877099F0BB2089F0812F807F8034A1
:100BF00021F080E2800F883048F082E00E94E41605
:100C000080912A038770DD24D3948111D12CC12EC9
:100C1000C2942FE0C2228C2D90E08C30910508F018
:100C20003DC2FC01EA5AFF4F0C948F21812F807F37
:100C30001F70882311F01295107FBB20B9F011238B
:100C400009F417C280E2800F883010F0911006C0BE
:100C500080912D03182B10932D0305C080912C0338
:100C6000182B10932C030E947C1503C2802F0E9426
:100C70005220112309F412C2005E1095083010F0C2
:100C8000911006C080912D03182310932D0305C0E9
:100C900080912C03182310932C030E947C15FEC115
:100CA000812F807F1F70803211F01295107F992064
:100CB00021F0F1E09F1601F12EC0BB20A1F0809140
:100CC0002E03AA2071F001E0A0120BC0182B909106
:100CD000F70192FDE3C1181709F4E0C110932E0348
:100CE000DDC1812B10C0AA2021F021E0A21609F459
:100CF000D5C10E94761527C0BB2041F035E03A15DA
:100D000008F4CCC1812F0E944820C8C184E08A1514
:100D100008F4C4C118C0BB2049F0AA2099F3F70118
:100D2000858180FFA6C18F708583ECCFAA2059F002
:100D3000093309F0B0C1FFEF17EE23E0F150104086
:100D40002040E1F7A6C1812F0E943D20A7C1812F3D
:100D500086958695837019F0813059F09FC1BB202C
:100D600019F0C801937002C080E090E00E94F20E7A
:100D70009DC1BB2019F0C801937002C080E090E0D3
:100D80000E94DC0E93C1812F837009F069C0B110FD
:100D900089C1902F929596959770990F990F802FF2
:100DA0008F70882E912CA12CB12C092E04C0880C98
:100DB000991CAA1CBB1C0A94D2F704FF12C04FE076
:100DC00050E060E070E004C0440F551F661F771FBD
:100DD0009A95D2F7DB01CA0180959095A095B095C0
:100DE00003C080E090E0DC0116951695412F43701A
:100DF000423019F1C8F400912F0310913003209173
:100E0000310330913203413059F088299929AA29B8
:100E1000BB29BC01CD0160237123822393230AC027
:100E2000802A912AA22AB32ABC01CD0168297929F6
:100E30008A299B290E94221735C188299929AA2924
:100E4000BB2900912F031091300320913103309181
:100E50003203BC01CD016027712782279327EACF97
:100E6000BB2019F0812F817001C08695882309F479
:100E700019C1902F929596959770990F990F802F81
:100E80008F70882E912CA12CB12C092E04C0880CB7
:100E9000991CAA1CBB1C0A94D2F704FF12C04FE095
:100EA00050E060E070E004C0440F551F661F771FDC
:100EB0009A95D2F7DB01CA0180959095A095B095DF
:100EC00003C080E090E0DC0116951695412F437039
:100ED0004230D9F068F50091F2011091F3012091B0
:100EE000F4013091F501413059F088299929AA2956
:100EF000BB29BC01CD0160237123822393231EC033
:100F0000802A912AA22AB32A13C088299929AA29BA
:100F1000BB290091F2011091F3012091F40130916D
:100F2000F501BC01CD01602771278227932706C0F8
:100F3000BC01CD01682979298A299B290E94B5160F
:100F4000B1C01F70BB2039F0812F0E940117802F84
:100F50000E944820A7C0802F0E943D20812F0E9420
:100F6000BF16A0C0802F32EF931609F440C0391588
:100F700038F090EF991661F0E1EF9E1699F174C088
:100F8000F3EF9F16D9F124EF921609F44EC06CC00E
:100F9000BB2019F134E03A1508F480C01F7181E0DC
:100FA00090E0A0E0B0E0AC01BD0104C0440F551FCB
:100FB000661F771F1A95D2F78091F2019091F30185
:100FC000A091F401B091F5018A019B01082719272E
:100FD0002A273B27C901B80125C025E02A1508F4B6
:100FE0005DC0DCCFBB2029F0812F8F7130C0BB20CA
:100FF000D9F3812F8F710E94BF1650C0BB2079F0AA
:101000001F7181E090E0A0E0B0E0BC01CD0104C020
:10101000660F771F881F991F1A95D2F703C060E0EB
:1010200070E0CB010E94B51639C0BB2099F01F714A
:10103000812F0E9401178091F70182FD07C038E0DF
:10104000139FC0011124836080932A03812F0E9483
:10105000011724C081E00E94E41681E08A15F0F4B3
:1010600082E00E94E4161AC0BB2039F0AA2009F4DD
:10107000BBCF802F0E94842011C0AA2009F4B9CFD1
:10108000893349F49FEFE7EEF3E09150E040F04000
:10109000E1F700C00000802F0E94522088EF8C0DE5
:1010A000843020F40E94080F0E943D13DD20A9F037
:1010B00080912A0380FD11C0F701128285958595E4
:1010C00085950E940117C7010E945E0280912A0344
:1010D0008595859585950E94BF1685E0F701DE010F
:1010E000119601900D928A95E1F789819A810E946B
:1010F0006016EA81F0E00BE0809FE00DF11D112405
:10110000EE0FFF1FEE0FFF1F8981E80FF11DEE0F9D
:10111000FF1FEC5FFE4F859194911FC080912A03C1
:101120008770D9F0F70182818823B9F082E02A968E
:101130000FB6F894DEBF0FBECDBFDF91CF911F91E8
:101140000F91FF90EF90DF90CF90BF90AF909F9066
:101150008F900C94E41669E238CC2A960FB6F89476
:10116000DEBF0FBECDBFDF91CF911F910F91FF90DA
:10117000EF90DF90CF90BF90AF909F908F900895A9
:10118000CF93DF93CDB7DEB7A3970FB6F894DEBF4A
:101190000FBECDBF84B7877F84BF0FB6F894A895E4
:1011A00080916000886180936000109260000FBEA3
:1011B00090E080E80FB6F89480936100909361000E
:1011C0000FBE85B7806885BF85B7806885BF88EB0F
:1011D00093E19093ED018093EC010E94EE1D0E943B
:1011E000941E8091E20084608093E2007894809164
:1011F00057038823A1F01091E9001F709091EC0033
:10120000892F817090FD80E8182B1092E900809161
:10121000E80083FD0E94E11A1F701093E90082E04C
:1012200084BD93E095BD9AEF97BD80936E0004E175
:1012300011E08FE1E82E81E0F82ED8018D918D012B
:101240000E94E110E016F106C1F786EF0E94E1105E
:1012500087EF0E94E11083E90E94E11086E90E9475
:10126000E110ECEFF1E087E092E0AAE0B2E0119249
:101270001D928E179F07D9F780E090E00E942D21E4
:101280008A3E9E4F11F00E940B1582E090E00E9472
:10129000252180934B020E94FA149093F7018093CA
:1012A000F60183E090E00E942521682F70E080E045
:1012B00090E00E942217509A589A559A5D9A549A33
:1012C0005C9A10926103EAE7F3E08AE893E02FEF7B
:1012D0003FEF219331938E179F07D9F71092150294
:1012E000EEE2F2E08EE392E02FEF3FEF21933193B5
:1012F0008E179F07D9F780E090E00E942D218A3E4B
:101300009E4F21F00E940B150E943E1046E050E0D7
:101310006CE170E08EE893E00E94152180918E03CD
:101320008C7F11F40E943E108CE090E00E942521F9
:1013300090E0A0E0B0E08093F8019093F901A093D1
:10134000FA01B093FB015198599A52985A9A89B16F
:10135000869581704A9902C090E001C092E0892B85
:101360008093490260E085E00E94121020E040E591
:101370006FEF82E390E00E94B90F83E091E09093D9
:10138000080280930702B8E12B2E312CBB24B394C2
:1013900080915703853009F051C000E112E180913E
:1013A0005703853009F042C080915703843069F1BA
:1013B00080E00E943D1340E060E080E00E94990FD1
:1013C000F1E0F09346021092090220E40FB6F8947F
:1013D000A895209260000FBE2093600083B7817FA4
:1013E000846083BF83B7816083BF7894889583B717
:1013F0008E7F83BF0FB6F894A895809160008861B6
:1014000080936000109260000FBE80915603882385
:1014100009F4C5CF0E94F810EAE0F2E08191811151
:101420002AC232E0E531F307C9F7B9CF0E9451195A
:101430000E94080F0E943D13109246020E94F8106D
:1014400081110E945C14ACE4B2E0EAE0F2E000E05A
:1014500010E0902FD1908D918D2509F4A0C0F12C32
:10146000EE24E394282F2E2109F494C0FD8A9E8B4C
:10147000DE2081E009F480E08F8B0E946814816097
:10148000782F998F888F4D895E896F89898D0E9409
:101490003E0EF801E45BFD4F8081E826E082DD200E
:1014A00061F0F801EE0FFF1FEE0FFF1FE55CFE4F2E
:1014B000EF0DF11D80818F3F11F4D12C03C0A82EB8
:1014C000DD24D394C09015020D2D10E0C8018C0DC1
:1014D000911D0997A4F188E090E07C01E01AF10ADF
:1014E000B8016F5F7F4F6B5E7D4FA70186E192E091
:1014F0000E949521B801675F7F4F6B5E7D4FA7010A
:101500008EE192E00E949521A701440F551FB8017A
:10151000660F771F675E7F4F6B5E7D4F8EE292E0B6
:101520000E949521B8016F5E7F4F6B5E7D4FA701D2
:1015300086E292E00E949521CA94C09215028091A1
:10154000150290E0AA2DB0E09D01220F331F29590A
:101550003E4FAA0FBB1FBD0168597E4F41E0480FA7
:101560009D15A8F490E0FC01EB5EFD4FD9015C9164
:101570005183DB015C915187A18A880F991FFC017F
:10158000EB5EFD4F128E118E91E0842FE7CF80939A
:1015900015021BC0F394EE0C24E0F21263CF0F5F30
:1015A0001F4F0B30110509F054CF8FEF8A8F8B8FAF
:1015B0001C8E0E9468148160782F9E8F8D8F4A8DBB
:1015C0005B8D6C8D8E8D0E943E0E80913E029091BF
:1015D0003F02A0914002B09141022FB7F894C09011
:1015E0004202D0904302E0904402F09045022FBFA7
:1015F000C81AD90AEA0AFB0A0E945C1460933E02E8
:1016000070933F028093400290934102A091150293
:10161000E5E1F2E0ABA3B0E044244A94542C612C01
:10162000712C4C185D086E087F08AB17A9F0418D2E
:10163000528D8A0120E030E04016510662067306A2
:1016400020F41BA111501BA304C04C0D5D1D528F33
:10165000418FBF5F3296E9CF2BA1209315022091D5
:101660004602211108C000918E03202F237019F02B
:101670000695069501C000E0209102012130E9F0B5
:1016800030F02230F1F1233009F448C064C01092E8
:101690000E0160938A0370938B0380938C03909365
:1016A0008D0389E2E5E1F2E0A1E6B3E001900D925D
:1016B0008A95E1F7B09202014EC0809101010813B2
:1016C0000DC020918E03237030E04091000150E066
:1016D00081E02417350719F480E001C081E08170B2
:1016E000809310018091930390910F01981709F452
:1016F000D8C080930F0140E060E080E00E94990F25
:10170000D0C00093010180918E038370809300010B
:101710000E94180E83E0809302011DC040918A034D
:1017200050918B0360918C0370918D032FB7F894C7
:101730008091420290914302A0914402B0914502EF
:101740002FBF841B950BA60BB70B4097A105B105C6
:1017500010F01092020180914902E82FEE0FEE0F77
:10176000E093490289B181FB882480F8912C4A9941
:1017700003C080E090E002C082E090E088299929CF
:101780008E2B809349028F70E82FF0E0E55DFE4FCD
:10179000908180914802890F8093480284302CF117
:1017A000809147028F5F809347021B861C86BD860F
:1017B0000E9468148160782F9F878E874B855C8597
:1017C0006D858F850E943E0E188A198A1A8A0E949A
:1017D00068148160782F9C8B8B8B488959896A8922
:1017E0008C890E943E0E21E001C020E080914802D9
:1017F0008D3F2CF58091470281508093470212E083
:1018000019831A82BB820E9468148160782F9D839D
:101810008C8349815A816B818D810E943E0E1E838B
:101820001F8218860E9468148160782F9A878987A2
:101830004E815F8168858A850E943E0E21E08091FD
:101840004802082E000C990B64E070E00E947B2196
:101850008093480221110E945C140E94080F90910D
:101860004A02891709F494CD0E94080F80934A0216
:101870000E943D138DCD09BD19BD09B400FEFDCFF9
:101880008091D8008F7D8093D8008091E0008260A5
:101890008093E0008091E00081FDFCCF0E9451190F
:1018A0007ECD802F90E08830910580F080910E01F0
:1018B0008F5F80930E0182E080930201809110017E
:1018C000811149CF002309F425CF45CFFC01EE5902
:1018D000FF4F0C948F2180911001882309F4AEC032
:1018E00040E060E080E00E94990FA8C010910E01D6
:1018F000812F880F180F110F36E0F32EF10E3CE107
:101900003F1510F42CE1F22E60918F03709190033B
:10191000809191030E945110E62ED72EC82E1F15DC
:1019200008F074C0E12FF0E0DF01A156BE4F8C91AA
:1019300090910F01982331F02C2D4E2D6D2DCF015C
:101940000E949B0F1F5FEBCF10910E01812F880F1C
:10195000180F110F96E0F92EF10EACE1AF1510F44F
:101960008CE1F82E60918F03709190032091910388
:1019700040918A0350918B033091920336953695AE
:10198000369580E090E0439F812D539F800D911DFF
:101990001124382F36FD8095E82FEF738F7036FDB8
:1019A0008F5FE295EF70EE0FF0E0ED5DFE4F9181FD
:1019B000989F802D912D112482958F709295907F04
:1019C000892B9081890F37FD819587FD8195880F3F
:1019D000382F329F312D1124832F0E945110E62E73
:1019E000D72EC82E1F1590F4E12FF0E0DF01A1568D
:1019F000BE4F8C9190910F01982331F02C2D4E2DDC
:101A00006D2DCF010E949B0F1F5FECCF81E09BE10A
:101A10009F15A8F413C08CEC9DE002C083EC9DE000
:101A20000E9466190CC08AEA9DE005C082E79DE02D
:101A300002C080E49DE00E94BA1901C080E090914C
:101A40000E019F5F90930E01882309F434CF83CE5B
:101A5000EAE5F2E092E0EE3AF90729F0818360834B
:101A600042833396F7CF0895FC01EE0FFF1F8E0FD0
:101A70009F1FFC01E65AFD4F618340832283089536
:101A8000EF92FF920F93972F093438F4B701601B40
:101A900071096F3F710519F010F06FEF70E0485F4A
:101AA0005F4F4131510540F0A901485F5F4F41311F
:101AB000510510F06FEF70E06095482F460F08F465
:101AC0004FEF842F37FF02C02D5F3F4F359527958D
:101AD0003595279560918F03620F792F0F91FF90B5
:101AE000EF900895EF92FF920F93E00EF11CF90131
:101AF00037FF03C0F195E195F10924E0EE0FFF1FD8
:101B00002A95E1F7EF3FF10519F014F0EFEFF0E05F
:101B10009A0157FF03C031952195310994E0220FB6
:101B2000331F9A95E1F72E173F070CF4F901EE0DDC
:101B3000FF1DEF3FF10519F010F0EFEFF0E02E2F51
:101B40002095382F320F08F43FEF832F0F91FF902D
:101B5000EF900895EF92FF920F93970195E0099F00
:101B6000200D311D11242F3F310519F010F02FEFFA
:101B700030E02095382F320F08F43FEF832F0F917C
:101B8000FF90EF900895E42FF0E0EE0FFF1FE55C6B
:101B9000FE4F65A5621B0895E42FF0E0EE0FFF1FD6
:101BA000E959FE4F6081621B08959091F60192FF02
:101BB0000DC0282F2871283019F4877F846006C053
:101BC000282F2471243011F48B7F886093FF0DC07F
:101BD000282F2871283119F4877E846106C0282FA8
:101BE0002471243111F48B7E88612091F70120FF4C
:101BF0000DC0382F3871383019F4877F816006C0E6
:101C0000382F3171313011F48E7F886021FF0DC083
:101C1000282F2871283119F4877E816106C0282F6A
:101C20002171213111F48E7E886194FD877E0895A3
:101C3000279A85B18F7795B190682FB7F894EAE528
:101C4000F2E032E0EE3AF30789F0319148E095B9DD
:101C5000000000C037FF85B9330F000000C000C08E
:101C600000C085B900C04A9591F7EBCF2FBF8FE533
:101C700094E00197F1F700C0000008951F93CF93FF
:101C8000DF93CDB7DEB767970FB6F894DEBF0FBE10
:101C9000CDBF342F4B8B252F5C8B6D8B7E8B8F8B29
:101CA0004E895F89611110922C0386E0FE013D96FA
:101CB000DF01982F1D929A95E9F73D872E876F8750
:101CC000598B488BDE01179601900D928A95E1F7AA
:101CD000CE0107960E94A21781113EC086E0FE0148
:101CE0003796DE01119601900D928A95E1F7FF81FA
:101CF000E8856A857B856115710531F0EF3F31F428
:101D000081E0FF3F19F403C081E001C080E080FD65
:101D100023C02091DA0230E0C9010196877099272B
:101D200040910B0350E08417950779F1F983EA831A
:101D30007D836C8396E0929FD001939FB00D112418
:101D4000A552BD4FFE01319601900D929A95E1F793
:101D50008093DA020E942C1716E080910B03909179
:101D6000DA028917F9F0189FC001112485529D4F9E
:101D70000E94A2178823B1F080910B0390E0019696
:101D80008770992780930B03E8CF0E945119109216
:101D9000DA0210920B03E4EDF2E086E0DF011D921F
:101DA0008A95E9F767960FB6F894DEBF0FBECDBFF0
:101DB000DF91CF911F9108952091B2023091B3022B
:101DC0002817390771F09093B3028093B202E09123
:101DD0000702F0910802309721F00084F185E02D90
:101DE000099408952091B0023091B1022817390763
:101DF00071F09093B1028093B002E0910702F091EC
:101E00000802309721F00680F781E02D09940895AB
:101E1000E0910702F0910802309721F00190F081E3
:101E2000E02D099480E008950F931F93CF93DF93E3
:101E3000C42F122FFC0182818823C9F04093F00146
:101E40000E9468149093AF028093AE0280E28C0FE0
:101E5000883008F063C0C77081E001C0880FCA9560
:101E6000EAF7DF91CF911F910F910C944820809158
:101E7000F00148133CC02091AE023091AF024FB741
:101E8000F8948091420290914302A0914402B09153
:101E900045024FBF821B930B883C910540F5D0E271
:101EA000D10FC117B9F080E28C0F883040F4C770B1
:101EB00081E001C0880FCA95EAF70E943D20D83022
:101EC00030F581E0912F977001C0880F9A95EAF75D
:101ED0000E944820802F0E94F720D830F8F4212F4C
:101EE000277081E001C0880F2A95EAF70AC080E2D6
:101EF0008C0F883098F4C77081E001C0880FCA95B4
:101F0000EAF7DF91CF911F910F910C943D20802F24
:101F1000DF91CF911F910F910C94F720DF91CF911A
:101F20001F910F910895882311F0FA0101C0FB0160
:101F300009940C94280D0C94340D46E050E06CE1AB
:101F400070E08EE893E00C943321EEE8F3E0248116
:101F500030E1230F08F42FEF24830C949D0FEEE85B
:101F6000F3E0248130E1231B08F420E024830C9467
:101F70009D0F90918E03937061F080938F03609317
:101F80009003453B08F044EB4093910321110C94DE
:101F90009D0F0895EEE8F3E0438120E1421B08F431
:101FA00040E0818121E0628190E00C94B90FEEE87D
:101FB000F3E0438120E1420F08F44FEF818121E0FB
:101FC000628190E00C94B90FEEE8F3E0628120E1C9
:101FD000621B08F460E0818121E0438190E00C9471
:101FE000B90FEEE8F3E0628120E1620F08F46FEFD1
:101FF000818121E0438190E00C94B90FEEE8F3E099
:10200000818190E021E04381628108970C94B90FAF
:10201000EEE8F3E0818190E021E04381628108965F
:102020000C94B90F90918E03937091F0811102C0BE
:10203000946007C0883010F09C6103C0880F880F3F
:10204000982B90938E031092020161110C949D0FB6
:10205000089580918E0386958695815009F487E0D6
:1020600061E00C94121080918E03869586958F5FA7
:10207000883008F081E061E00C941210EEE8F3E0A3
:102080008DE080838091110190911201A091130144
:1020900081839283A3838FE784838FEF85830C945E
:1020A0009D0FCF92DF92EF92FF920F931F93CF93EA
:1020B000DF93F62E472FE82FF0E0711106C0E45FA2
:1020C000FD4F8491782F682F73C0272F30E0E45F95
:1020D000FD4FE491FE2F0E2F10E056E0659FC001EA
:1020E0001124CFEFD0E0BE010E9467215BEA5603C6
:1020F000C001579F900D11248F0D911D8F0D911DC3
:10210000982F990F980F7E01E21AF30AE09ED001F2
:10211000E19EB00DF09EB00D11248B2F499FA001C0
:102120001124452F55277E01E41AF50AE09EA001EF
:10213000E19E500DF09E500D11246E01C91AD10878
:10214000C29E7001C39EF00CD29EF00C11242F2D64
:102150003327C21BD30BC09F9001C19F300DD09F6E
:10216000300D1124932F6230710591F048F4611500
:102170007105E1F061307105B9F49E2FE52F16C0AD
:102180006430710569F040F06630710579F00CC07B
:102190009E2FEB2F832F0AC0EB2F8F2F952F06C07A
:1021A0009B2F8E2FE32F02C09B2F852F7E2F692F11
:1021B000DF91CF911F910F91FF90EF90DF90CF9023
:1021C0000895F894E82FE295EF70F0E031A1282F00
:1021D0002F7081E090E001C0880F2A95EAF7982FD0
:1021E0009095932391A392A1892B82A3789408952B
:1021F0008F929F92AF92BF92CF92DF92EF92FF9217
:102200000F931F93CF93DF93C4E1D1E00CEF11E064
:102210008FE1C82E81E0D82E5801912CEE24E39452
:10222000F12CBE018881F894E82FE295EF70F0E080
:1022300021A18F70A70102C0440F551F8A95E2F7B4
:10224000CA01922F982B91A392A18095892382A3F2
:10225000789400C0EFE1F1E020E030E0812C419182
:10226000842F82958F7090E0DC0190968C9190E0A5
:102270004F7002C0959587954A95E2F780FD07C09B
:102280008E2D022E01C0880F0A94EAF701C080E06B
:10229000882A2F5F3F4F2430310509F72196FB0133
:1022A00080810E94E110F0EAFA95F1F7D5018C9156
:1022B000881619F08C9281E001C080E0982ABFEF67
:1022C000AB1ABB0ACC16DD0609F0ABCF992049F05A
:1022D00081E0809359020E94681490935802809381
:1022E000570280915902882301F1209157023091C1
:1022F00058024FB7F8948091420290914302A09106
:102300004402B09145024FBF821B930B069768F0C1
:10231000EAE0F2E087E092E0D8012D918D0121936F
:102320008A179B07C9F710925902892DDF91CF9127
:102330001F910F91FF90EF90DF90CF90BF90AF90E3
:102340009F908F900895CF93DF93E72FF0E02BE0DD
:10235000829FE00DF11D1124EE0FFF1FEE0FFF1FF6
:10236000E60FF11DEE0FFF1FEC5FFE4FC591D491FC
:10237000CE01C238D10569F1B0F4C133D10509F4F9
:1023800075C048F4C932D10509F469C0CA32D10513
:1023900009F473C085C0C533D10509F459C0C933E8
:1023A000D105B9F07DC0C33ED10571F138F4C03E0E
:1023B000D105B1F0C23ED10511F172C0C63ED105C2
:1023C000B9F1C73ED105C9F1C43ED10509F068C0D5
:1023D00024C02091F60120FD5DC021FD5BC060C0DE
:1023E0002091F60120FD50C02091F70120FF42C14D
:1023F0008091F60184FD3CC183EE90E03BC12091C9
:10240000F60122FF37C1F4CF8091F60182FD3FC073
:102410008091F70180FD3EC0EBCF2091F70121FFB5
:1024200029C18091F60184FD23C187EE90E022C18D
:102430002091F60123FF1EC1F4CF8091F60183FDA8
:102440002CC08091F70181FFECCF84EE90E012C1A7
:102450002091F60125FF0EC189E290E00BC1209189
:10246000F60125FF07C185E390E004C12091F60144
:1024700026FF00C18AE290E0FDC02091F60126FF10
:10248000F9C081E390E0F6C089E390E0F3C082EE0A
:1024900090E0F0C080EE90E0EDC086EE90E0EAC003
:1024A000C11552E5D50708F06BC0C11521E5D2076B
:1024B00028F09C2F8827816F906ADCC0C83ED10528
:1024C00070F5C03ED10508F0D5C0C83AD105B8F4C2
:1024D000C53AD10550F08C2F855AC82FD0E0C5548D
:1024E000DE4F888190E09064C5C0C130D10509F409
:1024F000C1C008F4BDC0249708F4BAC0BBC0CF3B2C
:10250000D10508F0B5C08C2F885AC82FD0E0CC0F69
:10251000DD1FC254DE4F888199819464ABC0C11520
:1025200040E5D407F0F0CE01F4E096958795FA9552
:10253000E1F7282F23703C2F337081E090E002C038
:10254000880F991F3A95E2F79C68922B2C2F2F70D9
:102550002695269540E2249F90011124822B932BEF
:1025600089C0C11550E4D50720F0CE019F70906A54
:1025700081C09E013A9521153F4108F47BC078C087
:10258000C11556E5D50708F03FC0C11585E5D80748
:1025900048F08C2F0E94D50D8F7190E0982F8827DE
:1025A000906268C0C11594E5D90728F09C2F882750
:1025B000846F906A5FC09E01237033279C2F96958D
:1025C0009695C115D34580F441E050E002C0440F18
:1025D000551F2A95E2F780E2989F90011124CA01C5
:1025E000822B932B9C6846C041E050E002C0440F10
:1025F000551F2A95E2F780E2989F90011124CA01A5
:10260000822B932B9A6836C0C1155AE5D507B0F4D2
:10261000C11589E5D80718F18C2F8F700E94D50D50
:102620009E0194E0369527959A95E1F72F7030E05A
:10263000322F22273069A901482B0FC0CE019056B6
:1026400081159042A8F48D2F8F710E94D50D9E01A7
:10265000332730628F71A901582BCA010BC0C115F5
:1026600098E5D90728F09C2F8827806F906A02C0D0
:1026700080E090E0DF91CF910895809580FF02C0C7
:10268000589A01C0589881FF02C05D9A01C05D98B8
:1026900082FF02C05C9A08955C980895DF92EF92E1
:1026A000FF920F931F93CF93DF93E82FF0E0E4574F
:1026B000FE4FD490282F26952695269530E0F901D7
:1026C000E458FE4F0491877010E0082E02C0159563
:1026D00007950A94E2F701701127F901E459FE4FBA
:1026E000E490F12C082E02C0F594E7940A94E2F7E6
:1026F00091E0E922FF24F901E45AFE4FC491D0E0B1
:1027000002C0D595C7958A95E2F7C170DD270115FE
:10271000110519F081EE0E948420E114F10419F0F2
:1027200086EE0E9484208D2D0E94F720EF2819F05C
:1027300086EE0E945220012B19F081EE0E94522059
:10274000CD2B51F08CE2DF91CF911F910F91FF9033
:10275000EF90DF900C94F720DF91CF911F910F91B4
:10276000FF90EF90DF9008950895809134030895CD
:1027700080E00895CF93DF9300D01F92CDB7DEB7EE
:1027800090915703943019F589837B836A8382E0A3
:102790008093E9008FEF9091E800815095FD06C08D
:1027A00095ED9A95F1F700008111F5CF8091E80041
:1027B00085FF0DC040E050E063E070E0CE0101967F
:1027C0000E94B51A8091E8008E778093E8000F9000
:1027D0000F900F90DF91CF910895BC0184E00C948D
:1027E000BA13BC0183E00C94BA13CF93DF9320910A
:1027F0000D01222339F02091F60127FF03C060E28A
:1028000022E002C068E021E02093E9002FEF309140
:10281000E800215035FD06C035ED3A95F1F700008E
:102820002111F5CF2091E80025FF1DC0EC0180911A
:102830000D01811105C040E050E068E070E003C088
:1028400070E040E050E0CE010E94B51A8091E800AF
:102850008E778093E80080E2FE01A5E3B3E001906B
:102860000D928A95E1F7DF91CF91089578941F92A8
:102870000F920FB60F9211248F939F93AF93BF9334
:102880008091420290914302A0914402B09145028E
:102890000196A11DB11D8093420290934302A09323
:1028A0004402B0934502BF91AF919F918F910F90D9
:1028B0000FBE0F901F9018952FB7F89460914202A9
:1028C0007091430280914402909145022FBF089578
:1028D0002FB7F8948091420290914302A091440254
:1028E000B09145022FBF08951F920F920FB60F921D
:1028F00011248F939F93AF93BF938091090281110D
:1029000013C08091420290914302A0914402B09181
:1029100045024196A11DB11D80934202909343024E
:10292000A0934402B0934502BF91AF919F918F91C4
:102930000F900FBE0F901F90189520910D0122232C
:10294000C9F02091F60127FF15C0262F2695269560
:1029500026952E31C8F4FC01E20FF11D677081E06D
:1029600090E001C0880F6A95EAF7809592818923EB
:1029700082830895FC0106962281621301C01282AF
:102980003196E817F907C1F7089520910D01222328
:10299000C1F02091F60127FF14C0262F2695269519
:1029A00026952E3130F5FC01E20FF11D677081E0B4
:1029B00090E001C0880F6A95EAF79281892B8283A3
:1029C0000895FC0132962FEF30E04191641789F0B1
:1029D0002F3F19F4411101C0232F3F5F3630A9F773
:1029E0002F3F39F0FC01E20FF11D27FDFA956283BC
:1029F00008950895CF9384E090E00E942521C82F88
:102A000082E290E00E9425212C2F30E0A901582B72
:102A1000CA01CF9108956AEE7EEF80E090E00E94B7
:102A2000612160E082E090E00E94432160E083E069
:102A300090E00E94432110922F03109230031092D5
:102A400031031092320360E084E090E00E94432161
:102A500060E082E290E00E94432160E085E090E047
:102A60000E94432160E086E090E00E9443216FEFE6
:102A700087E090E00E94432140E050E0BA0188E006
:102A800090E00E94552160E08DE090E00E9443219B
:102A900040E050E0BA0188E190E00E94552160E0FA
:102AA00087E190E00E94432140E050E0BA018CE1D0
:102AB00090E00E94552160E070E080E290E00E948A
:102AC000612140E050E0BA0188E190E00E94552188
:102AD00040E050E0BA018FE090E00E94552140E0D4
:102AE00050E0BA0183E190E00C94552180912E03CF
:102AF000811110922E03089590912D0380912C0343
:102B0000892B20912B03982F922B9093B4028091C4
:102B10002E038823D9F0892B8093B40280910D0174
:102B2000882331F08091F60187FF02C08EE101C059
:102B300086E0E6EBF2E090E0815028F0219122233C
:102B4000D9F39F5FF9CF91110E947615E0910702AA
:102B5000F09108023097A9F080910D01882359F077
:102B60008091F60187FF07C08091B4028093B5027F
:102B700085E08093B4020280F381E02D84EB92E043
:102B80000994089580E090E00E94F20E80E090E0C9
:102B90000E94DC0E10922C0310922B030C947C15D7
:102BA000CF93C091F701C2FB992790F9981781F054
:102BB00080FBC2F9C093F7016091F60184E090E0D8
:102BC0000E9443216C2F82E290E0CF910C9443212C
:102BD000CF910895BF92CF92DF92EF92FF920F9321
:102BE0001F93CF93DF938C01C090F201D090F3013B
:102BF000E090F401F090F50180912F039091300363
:102C0000A0913103B0913203C82AD92AEA2AFB2ABB
:102C1000CFE1D0E0D701C6010C2E04C0B695A79530
:102C2000979587950A94D2F780FD04C0219790F775
:102C3000B12C07C0BC2EB8018C2F0E94A3110197A4
:102C4000A9F38B2DDF91CF911F910F91FF90EF9002
:102C5000DF90CF90BF900895CF93DF93EC010E9457
:102C6000EA15BE010E94A311DF91CF9108950E9441
:102C70002C16292F2F70E92FE295EF704E2F50E080
:102C8000FA013297EE30F105B8F4E659FF4F0C9493
:102C90008F21803F99F018F4883E70F40FC0843F74
:102CA00059F40CC0883E50F0813F31F407C0822FA8
:102CB000869586958695089580E0089581E008952B
:102CC000990F990F890F682F669566956695982FCD
:102CD000977085E0689FB001112440E050E080E0EB
:102CE000FB01E40FF51FE45FFC4F208130E0092E6B
:102CF00002C0369527950A94E2F721703327042EF7
:102D000001C0220F0A94EAF7822B4F5F5F4F4530D4
:102D1000510531F70895990F990F890FE82FE6951E
:102D2000E695E695877051E001C0550F8A95EAF760
:102D300085E0E89FF0011124E45FFC4F20E030E0E3
:102D400070E04081CB01022E02C0969587950A94CF
:102D5000E2F78170819584278523842781932F5FF3
:102D60003F4F2530310569F708956093F201709364
:102D7000F3018093F4019093F5010C94C2150F9325
:102D80001F9341E050E060E070E004C0440F551F25
:102D9000661F771F8A95D2F740955095609570957C
:102DA0008091F2019091F301A091F401B091F501AD
:102DB0008A019B01082319232A233B23C901B80157
:102DC0001F910F910C94B51620912A0380958223B0
:102DD00080932A03982F977041F430E0482F082EF3
:102DE000000C550B2417350721F49091F70192FF41
:102DF00007C08595859585950E94BF1610922A0378
:102E000008950F931F9341E050E060E070E004C02C
:102E1000440F551F661F771F8A95D2F78091F201E4
:102E20009091F301A091F401B091F5018A019B0109
:102E3000082B192B2A2B3B2BC901B8011F910F918D
:102E40000C94B51660932F03709330038093310375
:102E5000909332030C94C21580910B039091DA0287
:102E6000891719F08F5F8770FBCF08950F931F9319
:102E7000CF93DF938091D90282958F7009F05DC066
:102E80008091D602882309F458C080910B031091D9
:102E9000DA026091D4027091D502C091D702D0912C
:102EA000D80291E06F3F09F090E0292F06E08117EA
:102EB00009F443C0209721F07F3F21F030E003C0A8
:102EC00031E001C0322F90E030FD34C0089FF001A6
:102ED000099FF00D1124DF01A552BD4F11963C91C1
:102EE0001197371327C03C91361324C012963C919A
:102EF000129731111FC013964D915C9114974C1B82
:102F00005D0B483C5105B0F48091D9028F7080610F
:102F10008093D902E052FD4F80818F708061808361
:102F200084ED92E00E945E02DF91CF911F910F919C
:102F30000C942C1701968770BACFDF91CF911F9117
:102F40000F9108959F92AF92BF92CF92DF92EF922E
:102F5000FF920F931F93CF93DF93CDB7DEB76197A7
:102F60000FB6F894DEBF0FBECDBF8C0185E0F8012F
:102F7000DE011D9601900D928A95E1F7F80190818E
:102F80008181E2803091D4026091D5024091D702D4
:102F90005091D8024115510531F06F3F31F421E0D5
:102FA0003F3F19F403C021E001C020E0F22FF1708F
:102FB0009F2E20FD23C1F801C380D48024EDA22ED2
:102FC00022E0B22EF090D602F601E41BF50BFF20B2
:102FD00009F4CEC02091D902E83CF10508F099C06F
:102FE000422F407F09F051C0681311C039130FC040
:102FF000FE2CE1100CC02F7020612093D902C50176
:103000000E945E028091D902F801858337C1CD28E4
:1030100031F08F3F31F421E09F3F19F403C021E0EC
:1030200001C020E020FD03C021E02E2502C020E0E9
:1030300030E0F22FF170FF2E20FF1DC020910B0316
:103040004091DA0256E0241709F4F6C030E0529FAE
:10305000F001539FF00D1124E552FD4F618186135D
:1030600006C06081961303C06281E61204C02F5F20
:103070003F4F2770E8CFFE2CEE2009F4FFC080916F
:10308000D90281608093D90250C0681307C03913F8
:1030900005C0E11003C0F80125838DC09D878E8790
:1030A0008D859E850E943716882369F1EE2059F19F
:1030B0002091D902822F82958F7090E0029774F050
:1030C0008091D4029091D50298878F831986DB86F0
:1030D000CA862C87CE0107960E945E0286E0F80120
:1030E000A4EDB2E001900D928A95E1F70E943617A7
:1030F0000DC06817E1F09D878E878D859E850E94A3
:10310000371681111EC0C8010E945E02FF24F3948D
:10311000B5C0422F407F69F784ED92E00E945E02C5
:1031200086E0F50111928A95E9F7F12CA7C03913D1
:10313000E2CFE110E0CFF8012583C8010E945E02D2
:1031400057C0EE2001F32091D902822F82958F7013
:1031500090E002971CF28091D4029091D5029A835C
:1031600089831B82DD82CC822E83CE010196B4CF6F
:10317000E83CF105E8F5FE2CEE2029F2681327C0A3
:10318000391325C02091D90220FD18C0822F8295C5
:103190008F70482F50E04115510581F0F8012583CB
:1031A0004F30510541F08F5F982F9295907F822F7D
:1031B0008F70892B8583C8010E945E0286E0F8012A
:1031C000A4EDB2E001900D928A95E1F757C09D877A
:1031D0008E878D859E850E94371681117FCF8091C5
:1031E000D90281608093D902C8010E945E0246C064
:1031F00086E0F50111928A95E9F740C0EE2009F4C6
:1032000082CF9D878E878D859E850E943716F82EEA
:10321000882309F478CF86E0F801A4EDB2E00190AC
:103220000D928A95E1F78091D4029091D5020E9487
:103230002C160E94361722C09D878E878D859E850D
:103240000E942C16292F22952F70223028F49F706F
:1032500039F0811105C00BC0243028F49F7049F467
:10326000805E883020F0C8010E945E029F2CF92CFD
:1032700005C0F8019581907F99F7F9CF8F2D619660
:103280000FB6F894DEBF0FBECDBFDF91CF911F9177
:103290000F91FF90EF90DF90CF90BF90AF909F90F5
:1032A000089510922D0380910D01882331F08091B3
:1032B000F60187FF02C08EE101C086E0E6EBF2E096
:1032C000DF011D928A95E9F70C94C215CF92DF9227
:1032D000FF920F931F93CF93DF938C01C0910E0148
:1032E0008C2F880FC80FCC0FD6E0DC0FDD3108F033
:1032F000DCE1309192033695369521E0320F08F4E7
:103300003FEF40918A0350918B0380E090E0439F10
:10331000812D539F800D911D1124F82ECD17F0F4AF
:10332000CC2ED12CF601E156FE4F908180910F01F9
:10333000892391F060918F037091900380919103A4
:103340002F2D4C2FF80109950E945110462F282F40
:10335000672FC6010E949B0FCF5FE0CF81E0DC3179
:1033600008F080E0DF91CF911F910F91FF90DF90E7
:10337000CF9008952F923F924F925F926F927F92DB
:103380008F929F92AF92BF92CF92DF92EF92FF9275
:103390000F931F93CF93DF93CDB7DEB727970FB669
:1033A000F894DEBF0FBECDBF2C0100910E01802F1F
:1033B000880F080F000F0D830A5F0E830D3110F088
:1033C0001CE11E8390906103212C312C1D813E81D4
:1033D000131708F0ADC01D81C12ED12CF601E156A6
:1033E000FE4F908180910F01892309F49DC0609167
:1033F0008F03709190038AE7682E83E0782E92E61F
:10340000A92E93E0B92E80E01F829601220F331F70
:10341000A90149595E4F5A8349839601220F331FF0
:10342000D901A859BE4FBC83AB831F81911609F403
:103430006CC0F50191915F01A981BA814C9150E076
:10344000491B5109EB81FC81208130E0D5011796A1
:103450009C91291B3109449FD001459FB00DB00DAF
:103460001124229FF001239FF00DF00D1124AE0FC7
:10347000BF1FA230B10514F48A2E2EC0A13EEEE18A
:10348000BE074CF4FD0105E0F695E7950A95E1F7D6
:1034900098E09E0F01C09FEF01E0E92FF0E0E00F00
:1034A000F11DF595E795EE9F7001EF9FF00CF00C84
:1034B0001124AE15BF0518F49FEF9E0F05C00FEF46
:1034C000E01741F001E00E0F901738F788248A9436
:1034D000800E02C088248A9490919203192F01E0F3
:1034E000100F08F41FEFD301ED91FD913D01710123
:1034F000E19FE12CF19FE00CF11C1124082DF20159
:1035000009951F811F5F1F8390CF20919103382F52
:10351000329F312D1124832F0E945110462F282FC6
:10352000672FC6010E949B0F1D811F5F1D834ECF19
:1035300081E03C3108F080E027960FB6F894DEBFBA
:103540000FBECDBFDF91CF911F910F91FF90EF90F4
:10355000DF90CF90BF90AF909F908F907F906F90B3
:103560005F904F903F902F900895EF92FF920F93AE
:103570001F93CF93DF937C018B010E940D1E81115D
:1035800019C0E70101151105A1F08091E80085FD42
:103590000AC08091E8008E778093E8000E940D1E9B
:1035A000882381F307C089918093F10001501109AC
:1035B000E9CF80E0DF91CF911F910F91FF90EF90C5
:1035C00008951F93CF93DF93CDB7DEB7AA970FB6B9
:1035D000F894DEBF0FBECDBFE9E5F3E08091F100C6
:1035E000819323E0E136F207C9F780915A038330D3
:1035F00009F460C030F4813071F0823009F49AC06F
:10360000B1C08A3009F486C08B3009F46BC08930B0
:1036100009F0A8C020C080915903813A09F0A2C0E6
:103620008091E800877F8093E80080915D0390910E
:103630005E03892B21F460E285E393E003C060E040
:1036400080E090E070E00E94CA1F8091E8008B77D4
:103650008093E80087C080915903813209F082C0CD
:1036600080915D0390915E03029708F07BC080918A
:10367000E800877F8093E8008091E80082FD05C024
:10368000809157038111F8CF6DC02091F300809194
:10369000F20090E0922B029729F48091F1008B7F49
:1036A000813021F48091F100809334038091E8000F
:1036B0008B7754C080915903813A09F053C08091AF
:1036C0005D0390915E03892B09F04CC08091E80066
:1036D000877F8093E8008091E80080FFFCCF809195
:1036E0000D0137C0809159038132E1F580915D036E
:1036F00090915E03892BB1F58091E800877F8093DC
:10370000E8000E94401E80915B0380930D010E949F
:10371000511928C080915903813221F58091E80028
:10372000877F8093E8000E94401E80915C03809315
:10373000330318C080915903813AA1F48091E800C5
:10374000877F8093E8008091E80080FFFCCF809124
:1037500033038093F1008091E8008E778093E80036
:103760000E94401E8091E80083FFCCC180915903E4
:1037700090915A03492F50E04A30510508F0C2C1D8
:10378000FA01E858FF4F0C948F21803821F08238DD
:1037900009F0B8C108C08091550390915603992350
:1037A00089F082600FC080915D038F70873008F0D0
:1037B000A9C18093E9008091EB0085FB882780F9FF
:1037C0001092E9009091E800977F9093E800809331
:1037D000F1001092F10065C1282F2D7F09F092C1F0
:1037E000882319F0823061F08DC180915B038130B4
:1037F00009F088C1933009F080E0809356032EC011
:1038000080915B0381112AC080915D038F702FEF3F
:10381000280F263008F076C18093E9002091EB0054
:1038200020FF1CC0933021F48091EB00806214C013
:103830009091EB0090619093EB0021E030E0A901C2
:1038400002C0440F551F8A95E2F74093EA00109298
:10385000EA008091EB0088608093EB001092E90011
:103860008091E800877F20C181114CC110915B03DA
:103870001F778091E3008078812B8093E300809113
:10388000E800877F8093E8000E94401E8091E80056
:1038900080FFFCCF8091E30080688093E3001111EA
:1038A00002C082E001C083E0809357032BC180589F
:1038B000823008F027C180915B0390915C038C3DBE
:1038C00053E0950779F583E08A838AE289834FB7CD
:1038D000F894DE01139620E03EE051E2E32FF0E0A1
:1038E00050935700E49120FF03C0E295EF703F5FD3
:1038F000EF708E2F90E0EA3010F0C79601C0C096AE
:103900008D939D932F5F243149F74FBF8091E8003D
:10391000877F8093E8006AE270E0CE0101960E9402
:10392000CA1FAEC040915D0350915E03292F33271B
:1039300023303105A9F068F42130310509F4F1C0D4
:103940002230310509F0DEC08BE390E0E9EBF3E0D3
:1039500044C02132310521F12232310571F1D2C04A
:10396000992781309105A1F058F0029709F0CAC05B
:10397000E6E0F4E0E4918E2F90E0E6E0F4E02AC087
:10398000E6E2F4E0E4918E2F90E0E6E2F4E022C07B
:10399000E2E1F4E0E4918E2F90E0E2E1F4E01AC07D
:1039A0004115510509F4C2C04130510509F0AAC0C2
:1039B00089E090E0E4EEF3E010C04115510509F410
:1039C000BAC04130510509F09DC08DE690E0ECE0B1
:1039D000F3E003C0009709F495C02091E800277F29
:1039E0002093E80020915F033091600382179307D2
:1039F00008F49C0140E02115310589F180915703BD
:103A0000882309F43DC08530D9F18091E80083FD19
:103A100037C08091E80082FD2FC08091E80080FFD0
:103A2000EACF4091F3008091F20090E0942B2115B1
:103A3000310559F08830910540F444914093F100EC
:103A40003196215031090196F2CF41E0089709F0F3
:103A500040E08091E8008E778093E800CCCF411160
:103A6000CDCF0AC080915703882351F0853041F0B3
:103A70008091E80083FD04C08091E80082FFF2CFCE
:103A80008091E8008B778093E8003CC08038D1F5C6
:103A90008091E800877F8093E800809158038093AD
:103AA000F1008091E8008E778093E8000E94401E2C
:103AB00029C0811127C080915B0390915C039927F5
:103AC000029704F58091E800877F8093E8001091C9
:103AD0005B03109358030E94401E111106C0809191
:103AE000E30087FD02C081E001C084E080935703BA
:103AF00042E061EC81E00E945F1E42E261EC82E004
:103B00000E945F1E8091E80083FF1AC08091E80048
:103B1000877F8093E8008091EB0080628093EB00C8
:103B20000FC082E190E0E4EFF3E057CF89E090E04E
:103B3000EBECF3E052CF80E490E0E9E7F3E04DCF27
:103B4000AA960FB6F894DEBF0FBECDBFDF91CF911E
:103B50001F9108951F920F920FB60F9211242F9369
:103B60003F934F935F936F937F938F939F93AF9305
:103B7000BF93CF93DF93EF93FF93C091E900CF7092
:103B80008091EC00D82FD17080FDD0E81092E90030
:103B90008091F000877F8093F00078940E94E11A72
:103BA0001092E9008091F00088608093F000CD2BA6
:103BB000CF70C093E900FF91EF91DF91CF91BF915A
:103BC000AF919F918F917F916F915F914F913F91B5
:103BD0002F910F900FBE0F901F901895E8EDF0E019
:103BE00080818E7F80831092E2001092DA00109222
:103BF000E100A0EEB0E08C9181608C9380818F77A2
:103C0000808319BCA7EDB0E08C918E7F8C9380816E
:103C10008F7E80831092940308952091E400309168
:103C2000E50095E64091EC00842F817040FF23C0B1
:103C30008091E80080FD1DC080915703882399F092
:103C4000853099F08091EB0085FD11C04091E40032
:103C50005091E5002417350729F3915011F09A018E
:103C6000E1CF84E0089582E0089583E0089581E043
:103C7000089580E008954091E80042FFDDCF089567
:103C80008091590387FF11C08091E80082FD05C033
:103C9000809157038111F8CF11C08091E8008B7794
:103CA0000BC080915703882349F08091E80080FF82
:103CB000F8CF8091E8008E778093E8000895982FE0
:103CC000973068F59093E900981739F07091EC00FF
:103CD0002091ED005091F00003C0242F762F50E08A
:103CE00021FD02C09F5FECCF3091EB003E7F30930F
:103CF000EB003091ED003D7F3093ED003091EB0013
:103D000031603093EB007093EC002093ED00509302
:103D1000F0002091EE0027FDE5CF80E008958F7040
:103D20008093E90081E00895CF92DF92EF92FF92B5
:103D30000F931F93CF93DF93C8EDD0E088818F7EE0
:103D40008883E7EDF0E080818160808384E082BF3A
:103D500081E08093940388818E7F888302EE10E057
:103D6000F80110821092DA0081EEC82ED12CF601F3
:103D7000108288818F778883888180688883888192
:103D80008F7D888319BC10925703109258031092AC
:103D900056031092550390EEE92EF12CF701808125
:103DA0008B7F808388818160888342E060E080E04F
:103DB0000E945F1EF60180818E7F8083F8018081E2
:103DC00081608083808188608083F70180818E7F1D
:103DD0008083888180618883DF91CF911F910F91CB
:103DE000FF90EF90DF90CF9008951F920F920FB643
:103DF0000F9211242F933F934F935F936F937F9371
:103E00008F939F93AF93BF93EF93FF938091E100C4
:103E100082FF09C08091E20082FF05C08091E1002D
:103E20008B7F8093E1008091DA0080FF2AC080912F
:103E3000D80080FF26C08091DA008E7F8093DA0060
:103E40008091D90080FF18C080E189BD82E189BDE1
:103E500009B400FEFDCF81E0809357038091940365
:103E600081110FC00E94EE1D0E94941E8091E200FD
:103E700084608093E20005C019BC10925703109231
:103E800094038091E10080FF17C08091E20080FFE1
:103E900013C08091E2008E7F8093E2008091E20067
:103EA00080618093E2008091D80080628093D80086
:103EB00019BC85E0809357038091E10084FF2EC0F8
:103EC0008091E20084FF2AC080E189BD82E189BD42
:103ED00009B400FEFDCF8091D8008F7D8093D8007B
:103EE0008091E1008F7E8093E1008091E2008F7EDF
:103EF0008093E2008091E20081608093E2008091F3
:103F00005803882311F084E007C08091E30087FD07
:103F100002C081E001C083E0809357038091E100FB
:103F200083FF27C08091E20083FF23C08091E100DE
:103F3000877F8093E10082E08093570310925803BB
:103F40008091E1008E7F8093E1008091E2008E7F7E
:103F50008093E2008091E20080618093E20042E081
:103F600060E080E00E945F1E8091F0008860809396
:103F7000F000FF91EF91BF91AF919F918F917F9151
:103F80006F915F914F913F912F910F900FBE0F90C6
:103F90001F90189520915F03309160032617370713
:103FA00048F06115710539F42091E8002E772093CF
:103FB000E80001C0B901FC0120E06115710579F14B
:103FC000809157038823F1F18530F1F18091E80069
:103FD00083FD3CC08091E80082FD2EC08091E80006
:103FE00080FFEBCF2091F3008091F20090E0922BC4
:103FF0006115710551F08830910538F421912093B5
:10400000F100615071090196F3CF21E0089709F0A2
:1040100020E08091E8008E778093E800CECF2111D8
:10402000CFCF0AC080915703882361F0853061F0BB
:104030008091E80083FD0AC08091E80082FFF2CF02
:1040400080E0089582E0089583E0089581E0089576
:10405000882341F0809590912C03892380932C0331
:104060000C947C150895882339F090912C03892BAA
:1040700080932C030C947C150895882341F080953F
:1040800090912D03892380932D030C947C15089522
:10409000882339F090912D03892B80932D030C9464
:1040A0007C150895882379F19CEF980F913A30F4AC
:1040B000682F84EB92E00E949D1414C090E2980F48
:1040C000983090F4877021E030E0A90102C0440FDD
:1040D000551F8A95E2F7CA01809590912D03892397
:1040E00080932D030C947C159BE5980F933020F45E
:1040F00080E090E00C94F20E885A873120F480E042
:1041000090E00C94DC0E0895CF93882309F46DC0E1
:104110009CEF980F913AC8F5C82F80910D01882324
:10412000E1F08091F60187FF18C0EC2FE695E69547
:10413000E695F0E0EC54FD4F8281282F30E04C2FC3
:10414000477081E090E002C0880F991F4A95E2F71E
:1041500082239323892B61F412C0E6EBF2E08CEB0F
:1041600092E02191C21721F08E179F07D1F707C067
:104170006C2F84EB92E00E949D140E947C156C2FA2
:1041800084EB92E00E94C51413C090E2980F98301F
:1041900090F4877021E030E0A90102C0440F551F60
:1041A0008A95E2F7CA0190912D03892B80932D0304
:1041B000CF910C947C15EBE5E80FE33040F4F0E090
:1041C000E554FE4F808190E0CF910C94F20E885A16
:1041D000873158F4E82FF0E0EE0FFF1FE254FE4F56
:1041E00080819181CF910C94DC0ECF9108951F9323
:1041F000CF93DF93182F893319F0C0E0D0E002C0CD
:10420000C0E5D0E0812F0E948420209741F08FE903
:104210009FE00197F1F700C000002197F6CF812FB2
:10422000DF91CF911F910C945220DC01CB01FC0156
:10423000F999FECF06C0F2BDE1BDF89A319600B4FF
:104240000D9241505040B8F70895F999FECF92BDB4
:1042500081BDF89A992780B50895A8E1B0E042E0C1
:1042600050E00C941721DC01A40FB51F41505040C1
:1042700048F0CB01840F951F2E910E94442141509C
:104280005040D0F70895262FF999FECF92BD81BDF9
:10429000F89A019700B4021639F01FBA20BD0FB684
:1042A000F894FA9AF99A0FBE08950396272F0E9460
:1042B00044210E944321252F0E944421242F0C9445
:1042C00044210196272F0E9444210C944321AA1BCC
:1042D000BB1B51E107C0AA1FBB1FA617B70710F0F1
:1042E000A61BB70B881F991F5A95A9F78095909523
:1042F000BC01CD01089597FB072E16F4009407D05A
:1043000077FD09D00E94672107FC05D03EF4909507
:1043100081959F4F0895709561957F4F0895EE0F99
:10432000FF1F0590F491E02D0994FB01DC0102C010
:1043300001900D9241505040D8F70895F894FFCF66
:10434000FFFF03B513F513B413F113ED130100FFD1
:104350000000FF28F034353666670000000000F6E4
:10436000F79396003131295A1B750A00FF010001AD
:104370000000FFFF0000010001FF00FFFFFFFF0042
:104380000102030405060708090AFF0B0C0D0E0FB6
:10439000FF10FF15FFFF1614FFFF1713FFFF181282
:1043A000FFFF19111BFF1A4AA56CA590A5B3A54ADA
:1043B000816D818F81BC794A5F6D5F8F5F493C6DF4
:1043C0003C903CBC335B1990193D1A3D583D9E3DD5
:1043D000C53DE8C0E8C0C4C09EC057B71A7F1804E6
:1043E000040404040404040404040404040404048D
:1043F0000202020202020202020202818283E2003F
:10440000E900EA00B500B600B700CD008301CC009A
:104410008A0192019401210223022402250226022C
:0C44200027022A02B300B4006F007000F5
:00000001FF
