:100000000C9429030C9470030C9470030C947003EB
:100010000C9470030C9470030C9470030C94700394
:100020000C9470030C9470030C947F250C94BB24E7
:100030000C944A170C9470030C9470030C94700386
:100040000C9470030C9470030C9470030C94700364
:100050000C9470030C940C170C9470030C947003A4
:100060000C9470030C9470030C9470030C94700344
:100070000C9470030C9470030C9470030C94700334
:100080000C9470030C9470030C9470030C94700324
:100090000C9470030C9470030C9470030C94700314
:1000A0000C9470030C9470030C94700304080408FF
:1000B0003E083E0897083E0A3E0A3E0AB3089109E8
:1000C000A209A209670E6A0E8D0E9A0EA10EC10E2C
:1000D000C40E060F280FC70FC70F330F350F390F88
:1000E0005E0F800F830F860FA80F1F191F1932197B
:1000F000321928193219321932191F191F192D19DD
:10010000321932192D19CF22F6229D24F6229D2470
:10011000422365239D245A246A240000D7FF78FFD8
:1001200000000000000080FF64FF000000000000ED
:1001300005FF78FF0000000000005FFF5AFF00008D
:10014000000038012E0124011A0100001E0F0500D5
:10015000047F3F1F643214643214783C1E1E140A5C
:10016000050000000000000000000000000000008A
:10017000000000000000000000000000000000007F
:1001800000000000007E0F00D4FFFFFFC70000004A
:100190007800000000000000002A2B28000000006A
:1001A0000000000000000000000000002900000026
:1001B000002C1E3420212224342627252E362D37CC
:1001C00038271E1F202122232425263333362E379D
:1001D000381F0405060708090A0B0C0D0E0F101135
:1001E00012131415161718191A1B1C1D2F31302342
:1001F0002D350405060708090A0B0C0D0E0F10110A
:1002000012131415161718191A1B1C1D2F3130350F
:100210004C0001010101010101010102020202027F
:10022000020202020303030303030303040404049E
:100230000404040505050505060606060607070766
:10024000070708080808090909090A0A0A0B0B0B1D
:100250000C0C0C0D0D0D0E0E0E0F0F0F10101111BA
:10026000111212131314141515161617171818193E
:10027000191A1A1B1B1C1D1D1E1E1F2020212222A5
:10028000232424252626272829292A2B2C2D2D2EE8
:100290002F30313232333435363738393A3B3C3D02
:1002A0003E3F404142434445464748494A4C4D4EF3
:1002B0004F50515354555658595A5B5D5E5F6162B9
:1002C00064656668696B6C6D6F7072737577787A48
:1002D0007B7D7E8082838587888A8C8E8F919395A3
:1002E00096989A9C9EA0A2A3A5A7A9ABADAFB1B3C7
:1002F000B5B7BABCBEC0C2C4C6C9CBCDCFD1D4D6A7
:10030000D8DBDDDFE2E4E7E9EBEEF0F3F5F8FAFD48
:10031000FFFFAA7F5540080706050D0C0B0A1110B8
:100320000F161514131A181B120903010002040EEC
:1003300017192223252628292A2C2D2F3032333530
:1003400036383A3B3D3E4042434547494A4C4E5081
:1003500051535557595A5C5E6062646668696B6DAB
:100360006F71737577797B7D7F81838587898A8CAF
:100370008E90929496989A9C9E9FA1A3A5A7A8AAB6
:10038000ACAEAFB1B3B4B6B8B9BBBCBEBFC1C2C3EB
:10039000C5C6C7C9CACBCCCDCED0D1D2D2D3D4D585
:1003A000D6D7D7D8D9D9DADADBDBDBDCDCDCDCDCAE
:1003B000DDDDDDDDDCDCDCDCDCDBDBDBDADAD9D986
:1003C000D8D7D7D6D5D4D3D2D2D1D0CECDCCCBCA14
:1003D000C9C7C6C5C3C2C1BFBEBCBBB9B8B6B4B33A
:1003E000B1AFAEACAAA8A7A5A3A19F9E9C9A9896D0
:1003F0009492908E8C8A89878583817F7D7B7977A3
:100400007573716F6D6B6968666462605E5C5A5982
:1004100057555351504E4C4A4947454342403E3D43
:100420003B3A3836353332302F2D2C2A29282625D1
:100430002322AA00AE00A90000005300540055007A
:1004400056005F006000610057005C005D005E00C8
:10045000000059005A005B00580062000000630071
:1004600000004F000100500000001050AD002C00B3
:1004700053005F00025303532A00010001000100F2
:100480000000010001000100005C005C00000100B0
:100490000000300001002F00000010500500170080
:1004A00011030D00160007002D01060119011000AF
:1004B000000011011D03E10057012C000000E200C3
:1004C0000000A9000100AA0000001050B9004A0075
:1004D00017012B0352002B011A01500051004F004D
:1004E0000000B6002C00B70028004E0000004B00B2
:1004F000000005010980A101850319012AB7001533
:100500000126B700950175108100C0050C0901A1F5
:1005100001850419012AA002150126A00295017582
:10052000108100C005010906A1018505050719E034
:1005300029E71500250195087501810205071900B5
:1005400029EF1500250195F07501810205081901B3
:100550002905950575019102950175039101C00664
:1005600060FF0961A1010962150026FF0095207551
:100570000881020963150026FF0095207508910285
:10058000C005010906A101050719E029E7150025A5
:10059000019508750181029501750881010507190A
:1005A0000029FF150026FF00950675088100050843
:1005B00019012905950575019102950175039101B0
:1005C000C009025B00030100A0FA09040000010356
:1005D00001010009211101000122400007058103EA
:1005E00008000A09040100020300000009211101AA
:1005F00000012222000705820320000107050303F2
:10060000200001090402000103000000092111017A
:100610000001226D000705840320000A1201100169
:10062000000000084B4115000200010200010A030E
:100630005000530031003700000012034100540005
:100640004C0041004E0054004900530000000403D8
:10065000090411241FBECFEFDAE0DEBFCDBF04B620
:1006600003FE27C080916E0390916F03A0917003E9
:10067000B09171038730904BA740B04BD1F41092EA
:100680006E0310926F03109270031092710314BEE8
:1006900084B7877F84BF0FB6F894A89580916000D7
:1006A000886180936000109260000FBEE0E0F8E384
:1006B000099511E0A0E0B1E0EEE9F3E502C0059094
:1006C0000D92A23AB107D9F723E0A2EAB1E001C046
:1006D0001D92AE36B207E1F70E94B10A0C94CD2903
:1006E0000C9400008F929F92AF92BF92CF92DF92B4
:1006F000EF92FF920F931F93CF93DF93CDB7DEB7A7
:1007000029970FB6F894DEBF0FBECDBFFC018081E4
:10071000918123813481232B31F09F3F31F491E08B
:100720008F3F19F403C091E001C090E090FD06C72F
:100730007F0185E0DE01119601900D928A95E1F727
:10074000F701228189819A81222349F00E94C018F1
:10075000182F682F89819A810E94611903C00E9415
:100760003619182F69817A81812F0E94621E8C01AF
:10077000F7018281882309F49FC0C80182519F45F7
:10078000409708F0CAC68FEF93E00E94B728811106
:10079000A7C6025147EEC42ED12C002379F0C11414
:1007A000F4E0DF0609F49CC6C6010E94B728811157
:1007B00001C001501FEFC11AD10AEFCF1E821F8264
:1007C00018861986BB24B3943AE0A32E86010F5FE6
:1007D0001F4FC6010E94B7288E831F82882309F409
:1007E0007FC69FEF980F933060F48F83BE8222E024
:1007F000C20ED11CC8010E94B7288887811102C08F
:100800006FC668018E010A5F1F4FF801808188233F
:10081000E9F2813009F04BC08181813049F448010F
:10082000F2E08F0E911CF80182810E9482270AC09B
:10083000823051F44801F2E08F0E911CF801828160
:100840000E940F27840135C0833049F44801F2E04B
:100850008F0E911CF80182810E94DD26F3CF843037
:1008600019F00F5F1F4F25C0F80122810E5F1F4F47
:1008700080E090E030E0205331092A30310568F4FF
:10088000A89EA001A99E500D1124C901840F951F97
:100890000F5F1F4FF8012081EDCF009751F0EFE976
:1008A000FFE03197F1F700C000000197F6CF0E94FA
:1008B0002B150F5F1F4FA9CF0031FFE51F0731F048
:1008C00001312FE51207A9F482E001C081E00E9406
:1008D00097190E94CB2104C6C801815E9C450597EB
:1008E00040F46FE1600F6093AA018CE090E00E94F9
:1008F000CB2817FF8CC0F7018281882309F487C0B9
:10090000E091B701F091B801309729F00190F081A2
:10091000E02D099501C080E0869581708093A50146
:100920009091AA01913029F4882319F089E30E945B
:100930008227809148028093A401109248028091FE
:10094000AA01813071F048F08230C1F08430E1F4C6
:1009500086EE0E94822788E115C082EE0E940F2752
:1009600013C083E00E94BE2688E10E940F2788E121
:100970000E94DD2683E00E94B32606C082EE0E941C
:100980000F2787E50E9482278FE39CE90197F1F703
:1009900000C000005801E894B7F82CE0C22ED12C1A
:1009A000C5010C2C02C0969587950A94E2F78F70CA
:1009B00096EF980F963010F0805D01C0895A0E9422
:1009C0002B1594E0C91AD108ECEFCE16EFEFDE0636
:1009D00039F78091AA01813039F078F0823069F0DE
:1009E000843089F488E20DC08CE20E9482278091D5
:1009F000A501882341F089E304C082EE0E94DD2630
:100A000002C00E9482278091A40180934802033F84
:100A1000FCE51F0759F190F4083D3CE51307E9F0A8
:100A2000093D8CE51807A1F1073D9CE51907B1F5D3
:100A300006E221EE41EE67ED7CE514C0053FECE5F2
:100A40001E0701F1C8F0063F2CE5120739F507E251
:100A500025EE46EE66EF7CE505C007E225EE45EEA5
:100A600068ED7CE5C7010E94791D3AC506E221EEDA
:100A700040EE63EF7CE5F6CF07E225EE44EE64EF4F
:100A80007CE5F0CF06E221EE42EE65EF7CE5EACFB1
:100A900008E221E045EE69ED7CE5E4CFF7018281D3
:100AA000882309F43EC11092A6010230FCE51F071D
:100AB00008F421C106312CE5120730F0C8018A5F25
:100AC0009C45099708F017C10E94D0179093A9017F
:100AD0008093A80100313CE5130709F4C3C008F076
:100AE00041C008309CE5190709F49AC0F0F40430BD
:100AF000FCE51F0709F487C068F402303CE51307E2
:100B000009F477C003301C4509F0E5C08091A801C5
:100B1000826076C006309CE5190709F46EC008F0C3
:100B20007BC08091A80188606BC00C30FCE51F077A
:100B300009F485C068F40A303CE5130709F474C071
:100B400008F079C00E94291C8091A801806858C0D3
:100B50000E309CE5190709F476C008F07FC080913B
:100B6000A8018BC00B3FFCE51F0709F44FC018F527
:100B700003313CE5130709F47DC078F401319CE5AD
:100B8000190709F473C002311C4509F0A4C00E9482
:100B9000291C8091A8018F7733C00531FCE51F0720
:100BA00009F472C008F486C00A3F1C4509F093C0DE
:100BB0008091A9013EC00F3F8CE5180709F45FC082
:100BC00058F40D3FECE51E0709F444C008F43FC09B
:100BD0008091A90182602DC001302DE5120709F432
:100BE00075C008F45DC002301D4509F074C060E0B6
:100BF0006EC08091A801816003C08091A8018061CE
:100C00008093A80168C08091A80111C08091A901BA
:100C100082608093A9015FC08091A8018062F0CFBB
:100C20008091A8018064ECCF8091A80188608460E5
:100C3000E7CF8160EECF8091A8018E7FE1CF8091D8
:100C4000A8018D7FDDCF8091A801877FD9CF8091CA
:100C5000A90118C08091A9018D7FDBCF8091A801E7
:100C60008F7ECECF8091A8018F7DCACF8091A801C1
:100C70008F7BC6CF8091A801877F8B7FC1CF80916A
:100C8000A9018D7F8E7FC5CF8091A80182FB22278D
:100C900020F991E0922790FB82F990FB83F9B0CF85
:100CA0008091A901982F909591708E7F892B90FB50
:100CB00081F9AFCF0E94291C8091A80187FB2227D0
:100CC00020F991E0922790FB87F99ACF61E08EE0BE
:100CD00090E00E94CB286091A8011091A90184E0C6
:100CE00090E00E94CB28612F82E290E00E94CB2806
:100CF0000E94291CF5C3809148020631FCE51F07BC
:100D000009F58A7A91E009F490E09093A70188238D
:100D100011F065E301C069E28EED91E00E949B173E
:100D20000EC006311C4509F029C18091A701882316
:100D300009F402C465E38EED91E00E9473170E94EE
:100D40005218CEC382720C3C9CE5190709F4C4C04A
:100D500008F045C0063CFCE51F0709F4A9C0D8F41B
:100D6000033C3CE5130709F499C030F4023CECE580
:100D70001E0709F46EC0D1C0043CFCE51F0709F44E
:100D800092C0053C2CE5120709F0C7C04FE352E1C1
:100D900068E472E1A5C0093C3CE5130709F492C080
:100DA00078F4073CECE51E0709F487C0083CFCE535
:100DB0001F0709F0B2C043E352E167E272E190C05D
:100DC0000A3C2CE5120709F482C00B3C3CE51307F2
:100DD00009F0A3C049EA50E16AEB70E181C0013D2E
:100DE0008CE5180709F488C0A0F40E3CECE51E075A
:100DF00009F47CC008F477C00F3C2CE5120709F415
:100E000078C0003D3CE5130709F087C06EE089E03B
:100E100081C0043D8CE5180709F474C068F4023DF4
:100E2000ECE51E0709F46BC0033DFCE51F0709F064
:100E300074C061E088E16BC0053D2CE5120709F440
:100E400064C00D353DE5130709F067C06AE285E22D
:100E500061C08091D00180FF1BC08E7F8093D00144
:100E60006091D0017091D1018091D2019091D30114
:100E70000E9497101092CE018FEF90E7E2E0815030
:100E80009040E040E1F700C000000E949D1E28C392
:100E900081608093D00161E0869539C04FEA52E1CC
:100EA00068EB72E11DC048EB52E16FEA72E118C0D5
:100EB00048E452E16FE372E113C047E252E163E3B9
:100EC00072E10EC04FE052E16BE172E109C04BE10B
:100ED00052E16FE072E104C04AEB50E169EA70E16F
:100EE0000E94811EFDC261E081E011C065E082E0E8
:100EF00011C068E086E00EC064E18FE00BC067E1DE
:100F000085E108C062E289E105C061E083E20E94F8
:100F10005112E6C20E946F1EE3C20A35FDE51F07AB
:100F200041F150F401153CE51307A9F00E3D1C45B5
:100F300029F50E94E117D4C20B359DE51907D9F0B8
:100F40000C351D45D9F48091A90182FB882780F9D1
:100F500091E0892711C00E94291CFFEF04E31CE0E7
:100F6000F15000401040E1F700C000000E94E81678
:100F7000B7C281E001C080E00E94A618F70182811B
:100F800000811181882349F0C8010E94C018D82E21
:100F9000682FC8010E94611904C0C8010E94361957
:100FA000D82EB8018D2D0E949E138C01982EF7012A
:100FB000B280A580A2949FE0A9228091450287700B
:100FC00099F0BB2089F0812F807F803421F080E26E
:100FD000800F883048F082E00E94BC198091450261
:100FE0008770DD24D3948111D12CC12EC2948FE05F
:100FF000C8228C2D90E08C30910508F03FC2FC0196
:10100000EA5AFF4F0C94A429812F807F1F708823F8
:1010100011F01295107FBB20B9F0112309F419C209
:1010200080E2800F883010F0911006C08091480255
:10103000182B1093480205C080914702182B10937B
:1010400047020E94521805C2802F0E94DD261123FC
:1010500009F414C2005E1095083010F0911006C01B
:101060008091480218231093480205C080914702DE
:101070001823109347020E94521800C2812F807FCC
:101080001F70803211F01295107F992021F0F1E04D
:101090009F1611F130C0BB20B1F0AA2081F001E011
:1010A000A0120DC08091A90182FDE8C18091490282
:1010B000182B181709F4E2C110934902DFC180917F
:1010C0004902812B10C0AA2021F021E0A21609F4C8
:1010D000D5C10E944C1827C0BB2041F035E03A151D
:1010E00008F4CCC1812F0E94D326C8C184E08A15A0
:1010F00008F4C4C118C0BB2049F0AA2099F3F70135
:10110000858180FFA6C18F708583ECCFAA2059F01E
:10111000093309F0B0C1FFEF17EE23E0F1501040A2
:101120002040E1F7A6C1812F0E94C826A7C1812FC8
:1011300086958695837019F0813059F09FC1BB2048
:1011400019F0C801937002C080E090E00E94571D22
:101150009DC1BB2019F0C801937002C080E090E0EF
:101160000E94411D93C1812F837009F069C0B110A5
:1011700089C1902F929596959770990F990F802F0E
:101180008F70882E912CA12CB12C092E04C0880CB4
:10119000991CAA1CBB1C0A94D2F704FF12C04FE092
:1011A00050E060E070E004C0440F551F661F771FD9
:1011B0009A95D2F7DB01CA0180959095A095B095DC
:1011C00003C080E090E0DC0116951695412F437036
:1011D000423019F1C8F400914A0210914B0220915B
:1011E0004C0230914D02413059F088299929AA29A1
:1011F000BB29BC01CD0160237123822393230AC044
:10120000802A912AA22AB32ABC01CD016829792912
:101210008A299B290E94FA1935C188299929AA2966
:10122000BB2900914A0210914B0220914C0230914F
:101230004D02BC01CD016027712782279327EACF99
:10124000BB2019F0812F817001C08695882309F495
:1012500019C1902F929596959770990F990F802F9D
:101260008F70882E912CA12CB12C092E04C0880CD3
:10127000991CAA1CBB1C0A94D2F704FF12C04FE0B1
:1012800050E060E070E004C0440F551F661F771FF8
:101290009A95D2F7DB01CA0180959095A095B095FB
:1012A00003C080E090E0DC0116951695412F437055
:1012B0004230D9F068F500916A0310916B032091D8
:1012C0006C0330916D03413059F088299929AA297E
:1012D000BB29BC01CD0160237123822393231EC04F
:1012E000802A912AA22AB32A13C088299929AA29D7
:1012F000BB2900916A0310916B0320916C0330911C
:101300006D03BC01CD01602771278227932706C09A
:10131000BC01CD01682979298A299B290E948B1952
:10132000B1C01F70BB2039F0812F0E94D919802FC6
:101330000E94D326A7C0802F0E94C826812F0E941A
:101340009719A0C0802F32EF931609F440C03915C9
:1013500038F090EF991661F0E1EF9E1699F174C0A4
:10136000F3EF9F16D9F124EF921609F44EC06CC02A
:10137000BB2019F134E03A1508F480C01F7181E0F8
:1013800090E0A0E0B0E0AC01BD0104C0440F551FE7
:10139000661F771F1A95D2F780916A0390916B03AD
:1013A000A0916C03B0916D038A019B010827192756
:1013B0002A273B27C901B80125C025E02A1508F4D2
:1013C0005DC0DCCFBB2029F0812F8F7130C0BB20E6
:1013D000D9F3812F8F710E94971950C0BB2079F0EB
:1013E0001F7181E090E0A0E0B0E0BC01CD0104C03D
:1013F000660F771F881F991F1A95D2F703C060E008
:1014000070E0CB010E948B1939C0BB2099F01F718D
:10141000812F0E94D9198091A90182FD07C038E06F
:10142000139FC0011124836080934502812F0E9485
:10143000D91924C081E00E94BC1981E08A15F0F41A
:1014400082E00E94BC191AC0BB2039F0AA2009F41E
:10145000BBCF802F0E940F2711C0AA2009F4B9CF5B
:10146000893349F49FEFE7EEF3E09150E040F0401C
:10147000E1F700C00000802F0E94DD2688EF8C0D70
:10148000843020F40E946D1D0E941A15DD2009F49D
:1014900055C08091450280FD51C0F70112828595AB
:1014A000859585950E94D919C7010E947203809184
:1014B000450285958595859529960FB6F894DEBFEA
:1014C0000FBECDBFDF91CF911F910F91FF90EF9095
:1014D000DF90CF90BF90AF909F908F900C94971912
:1014E00080914502877051F1F7018281882331F1A3
:1014F00082E029960FB6F894DEBF0FBECDBFDF9114
:10150000CF911F910F91FF90EF90DF90CF90BF9000
:10151000AF909F908F900C94BC190031FFE51F078E
:1015200011F481E006C001312FE5120709F0D4C99A
:1015300082E00E94D919CDC969E2FDCB29960FB688
:10154000F894DEBF0FBECDBFDF91CF911F910F91F9
:10155000FF90EF90DF90CF90BF90AF909F908F90D3
:101560000895CF93DF93CDB7DEB7EE970FB6F8941B
:10157000DEBF0FBECDBF84B7877F84BF0FB6F894A0
:10158000A89580916000886180936000109260004F
:101590000FBE90E080E80FB6F894809361009093BE
:1015A00061000FBE85B7806885BF85B7806885BF3D
:1015B0008BE696E19093A3018093A2010E94FF2401
:1015C0000E941E258091E20084608093E20078945E
:1015D000809160038823A1F01091E9001F70909121
:1015E000EC00892F817090FD80E8182B1092E900A3
:1015F0008091E80083FD0E94E9211F701093E900AB
:1016000082E084BD93E095BD9AEF97BD80936E0014
:101610000DE111E073E2E72E71E0F72EF801819100
:101620008F010E94DC12E016F106C1F786EF0E94DE
:10163000DC1287EF0E94DC1283E90E94DC1286E94B
:101640000E94DC12EEEAF1E084EB91E0A5EDB1E05E
:1016500011921D928E179F07D9F780E090E00E94AB
:10166000C5288A3E9E4F11F00E94E11782E090E06B
:101670000E94B7288093C6010E94D0179093A901B9
:101680008093A8010E94F3128FE39CE90197F1F780
:1016900000C000000E94F3128091D50180FF17C0A6
:1016A0006FEF83E290E00E94CB286FEF84E290E03E
:1016B0000E94CB286FEF85E290E00E94CB286FEF6D
:1016C0007FEF80E090E00E94E9280E94E81683E026
:1016D00090E00E94B728682F70E080E090E00E94C0
:1016E000FA1960916A0370916B0380916C03909179
:1016F0006D030E949115509A589A559A5D9A549A82
:101700005C9A8CE090E00E94B72890E0A0E0B0E006
:101710008093AA019093AB01A093AC01B093AD016B
:1017200083E290E00E94B728813281F484E290E065
:101730000E94B728883051F485E290E00E94B728D3
:1017400091E0873109F090E0892F01C080E080FFAF
:1017500067C48091B401811136C080E090E00E949E
:10176000C5288A3E9E4F21F00E94E1170E94CB10AF
:1017700088E090E00E94BF286093D0017093D1016F
:101780008093D2019093D3016E7F71F40E94CB10AD
:1017900088E090E00E94BF286093D0017093D1014F
:1017A0008093D2019093D3010E947D101092CE01BC
:1017B0008091D00180FF04C060E086950E945112A4
:1017C00081E08093B4015198599A52985A9A89B1FC
:1017D000869581704A9B02C092E001C090E0892BFF
:1017E0008093C40182E491E09093B6018093B501A7
:1017F00060E081E20E94511261E070E080E090E0E0
:101800000E948B1984E091E09093B8018093B70116
:1018100058E1C52ED12C60E4362E5524539444242F
:1018200043948E010F5F1F4F80916003853009F054
:101830007CC030E1E32E42E1F42E809160038530DC
:1018400009F056C080916003843009F440C080E004
:101850000E941A151092CE018091BB01811116C011
:101860004092BB018091D001982F91709093BA0162
:101870008E7F8093D001FFEF20E782E0F15020407F
:101880008040E1F700C000000E949D1E1092B90147
:101890000FB6F894A895C09260000FBE3092600019
:1018A00083B7817F846083BF83B7816083BF78946F
:1018B000889583B78E7F83BF0FB6F894A8958091E3
:1018C0006000886180936000109260000FBE80917C
:1018D0005F03882309F4B1CF0E94F312E5EDF1E034
:1018E000819181117EC391E0EB3DF907C9F7A5CF46
:1018F0000E94291C0E946D1D0E941A151092BB01A6
:101900008091BA01882351F08091D0018160809349
:10191000D00160E086950E94511205C08091CF01F0
:1019200081110E949D1E0E94871E0E94F312811148
:101930000E943217A7ECB1E0E5EDF1E0E12CF12CCB
:101940003E2D21919D91922721F180E0BB24B394FB
:10195000492F4B21D1F08DAB3EAB2B2181E009F417
:1019600080E08FAB0E943E178160782F99AF88AFDF
:101970004DA95EA96FA989AD0E94A31CF701E95387
:10198000FE4F8081B826B0821BC08F5FBB0C8430B5
:10199000F9F62FEFE21AF20A86E0E816F10481F672
:1019A0008FEF8AAF8BAF1CAE0E943E178160782FFD
:1019B0009EAF8DAF4AAD5BAD6CAD8EAD0E94A31CEA
:1019C0008091CE01882309F4AAC08091CD01E091D5
:1019D000D001E695E81BE093BE01823059F4F0E0B7
:1019E000E35AFE4FE491EE2EF12C2FE8A22E2CE1CB
:1019F000B22E70C0863059F4F0E0E65AFE4FE49102
:101A0000EE2EF12C9FE7A92E9CE1B92E63C0893000
:101A100061F4E695F0E0E95AFE4FE491EE2EF12CE8
:101A200081EAA82E81E2B82E55C08F3061F4E69588
:101A3000F0E0EC5AFE4FE491EE2EF12CB4E3AB2E25
:101A4000B1E2BB2E47C0853159F4F0E0EF5AFE4FAA
:101A5000E491EE2EF12CA6EEAA2EA0E2BA2E3AC008
:101A60008831F9F0833249F4EFE4F1E0E590F49045
:101A7000FFE3AF2EFCE1BF2E2DC08432D1F08532C2
:101A800009F58E2F63E00E946229E92FF0E0E45B04
:101A9000FE4FE491EE2EF12CE2E8AE2EEFE1BE2EE9
:101AA00019C068E2E62EF12C7DE5A72E70E2B72E74
:101AB00011C044EFE42EFF24F39453E2A52E50E22C
:101AC000B52E08C020EDE22E27E0F22E3EE3A32E35
:101AD0003CE1B32E8091BF01882361F01092BF01D9
:101AE0000E943E179093BD018093BC011092C101EA
:101AF0001092C0010E943E17E091BC01F091BD011F
:101B00008E1B9F0B8F3F9F4750F4EE0EFF1EF092EF
:101B1000BD01E092BC018CEB91E0F501099580914B
:101B2000C401E82FEE0FEE0FE093C40189B181FBF1
:101B3000662460F8712C4A9B03C082E090E002C0EA
:101B400080E090E0862997298E2B8093C4018F70C6
:101B5000E82FF0E0E95DFE4F90818091C301890F8D
:101B60008093C30184302CF18091C2018F5F8093F8
:101B7000C2011BA61CA65DA60E943E178160782F9D
:101B80009FA78EA74BA55CA56DA58FA50E94A31C42
:101B900018AA19AA1AAA0E943E178160782F9CAB36
:101BA0008BAB48A959A96AA98CA90E94A31C21E062
:101BB00001C020E08091C3018D3F34F58091C201C6
:101BC00081508093C20192E0F92EF9A21AA25BA281
:101BD0000E943E178160782F9DA38CA349A15AA132
:101BE0006BA18DA10E94A31CFEA21FA218A60E9499
:101BF0003E178160782F9AA789A74EA15FA168A59B
:101C00008AA50E94A31C21E08091C301082E000C2C
:101C1000990B64E070E00E9490298093C301211128
:101C20000E9432170E946D1D9091C501891731F0F5
:101C30000E946D1D8093C5010E941A15809160035A
:101C4000843009F0F1CD83E08093E9008091E800D1
:101C500082FFEACD8091E80085FF23C00E945426D0
:101C600081111DC080E2A82EB12CCE0101967C010D
:101C700009C08091F100F70181937F01F1E0AF1A73
:101C8000B10869F08091E80085FDF3CF8091E8000C
:101C90008B778093E8000E945426882399F391E083
:101CA00001C090E08091E8008B778093E800992351
:101CB00009F4BACDE9818E2F90E0FC013197E33130
:101CC000F10508F064C1EE59FF4F0C94A4291A8263
:101CD00089E0BCC08A81823009F499C1833051F017
:101CE000813009F054C10E9432179B838C837D831D
:101CF0006E834FC18091D5018B838091D6018C83F7
:101D00008091D7018D838091D8018E838091D901F4
:101D10008F838091DA0188873CC18A81823009F003
:101D200036C16B817C818D819E810E94AA2986E2C9
:101D300090E024C04C816B818A810E943C1E9D836F
:101D40006DC1ED80FE80FE24EF24FE248C81AB80EB
:101D50009A8128E0A29E50011124E0E39E9FA00CEE
:101D6000B11C1124A80EB11CA80EB11C6F2DC50109
:101D700087960E94CB286E2DC50188960E94CB289D
:101D800008C10E94081E05C18A818138B1F050F453
:101D9000803809F0FEC020E04B816091D201809133
:101DA000D10131C0823859F1833809F0F2C020E006
:101DB0004091D3016C818B8126C060E08B810E94B1
:101DC00051129B818091D001911111C08E7F80931F
:101DD000D0011092CE01FFEF20E782E0F1502040C9
:101DE0008040E1F700C000000E949D1ED2C08160CB
:101DF0008093D00160E086950E945112CAC08B8109
:101E00008093D401C6C00E947411C3C08A818138F6
:101E100099F030F4803809F0BCC08091D30116C02D
:101E2000823891F0833809F0B4C08091D1018B835E
:101E30008091D2018C83ADC08091D00180FF02C01F
:101E4000869504C080E002C08091D4018B83A1C03C
:101E50006091D0017091D1018091D2019091D30114
:101E60000E94971096C080E14FC083E08A8389E189
:101E7000EDCFEA80FB80FE24EF24FE248C80912CA1
:101E80005801C70189519F4F9501201B310B28151F
:101E9000390508F07EC0E9E1EE16E3E0FE0628F41D
:101EA0000E94B728F501848302C0F5011482FFEF78
:101EB000EF1AFF0A2FEFA21AB20AE3CFEA80FB80E3
:101EC000FE24EF24FE248C80912C5801C7018951F7
:101ED0009F4F9501201B310B2815390508F059C07B
:101EE000E9E1EE16E3E0FE0620F4F50164810E94CC
:101EF000CB28FFEFEF1AFF0A2FEFA21AB20AE6CFA4
:101F00000E94F81D46C084E08A8343C0EA80FB80BB
:101F1000FE24EF24FE248C80912C5801C701879663
:101F20009501201B310B2815390598F5E0ECEE16CC
:101F3000F10428F40E94B728F501848302C0F5015A
:101F40001482FFEFEF1AFF0A2FEFA21AB20AE6CFB0
:101F5000EA80FB80FE24EF24FE248C80912C580123
:101F6000C70187969501201B310B2815390588F488
:101F7000E0ECEE16F10420F4F50164810E94CB2818
:101F8000FFEFEF1AFF0A2FEFA21AB20AE9CF8FEF85
:101F9000898380916003843009F046CC8091E90008
:101FA0008F702091EC00922F917020FD90E8F92E17
:101FB000F82A82E08093E9008091E80080FF0CC05D
:101FC00040E050E060E270E0C8010E948726809106
:101FD000E8008E778093E8008F2D8F708093E90062
:101FE00023CCE9BCF9BC09B400FEFDCF8091D80038
:101FF0008F7D8093D8008091E00082608093E00024
:102000008091E00081FDFCCF0E94291C16CC86E265
:1020100090E00E94B7281B821C821D828E83B9CF5C
:1020200060E086E290E00E94CB280E94081E0E9499
:10203000F81D61E283E290E00E94CB2868E084E230
:1020400090E00E94CB2867E185E290E00E94CB28D7
:1020500080CB9091A80192FF0DC0282F28712830C5
:1020600019F4877F846006C0282F2471243011F46E
:102070008B7F886093FF0DC0282F2871283119F4B9
:10208000877E846106C0282F2471243111F48B7E51
:1020900088612091A90120FF0DC0382F3871383098
:1020A00019F4877F816006C0382F3171313011F407
:1020B0008E7F886021FF0DC0282F2871283119F4E8
:1020C000877E816106C0282F2171213111F48E7E17
:1020D000886194FD877E08959091D00190FF0CC097
:1020E000E5E5F2E0818360834283339692E0E93A4A
:1020F000F907C1F70C949D1E08958091D001282FF7
:10210000269530E02115310519F48170826005C0F3
:102110002B32310524F0817084658093D001809149
:10212000D301853B18F084EB8093D3010895CF92BF
:10213000DF92EF92FF926B017C010E947D10B7014C
:10214000A60188E090E0FF90EF90DF90CF900C9494
:10215000DD288091D401882319F081508093D40127
:102160006091D0017091D1018091D2019091D30101
:102170000C9497108091D401833018F48F5F809372
:10218000D4016091D0017091D1018091D2019091E0
:10219000D3010C949710E0EDF1E083E0808311828D
:1021A0008FEF828388E283831482608171818281D0
:1021B00093810C949710AF92BF92CF92DF92EF92DF
:1021C000FF920F931F93CF93DF93E82EF62EE90132
:1021D000453B08F044EBE42FF0E0F11006C0EF5E61
:1021E000FD4FE4914E2F2E2F71C00F2D10E0EF5EAA
:1021F000FD4F4491F42FC42ED12C26E0E29EC00165
:1022000011242FEF30E0B9010E947C295BEA5603CC
:10221000C001579F900D11248E0D911D8E0D911DA3
:10222000582F550F580FD901A01BB10BAC9DC00101
:10223000AD9D900DBC9D900D1124E92FF59ED00110
:102240001124AB2FBB277901EA1AFB0AEC9CD001C1
:10225000ED9CB00DFC9CB00D11245901A51AB108DC
:10226000A09E7001A19EF00CB09EF00C1124EF2CEA
:10227000FF242E193F092C9D80012D9D100D3C9DA2
:10228000100D1124212F6230710591F048F4611571
:102290007105E1F061307105B9F4242F4B2F16C0A0
:1022A0006430710569F040F06630710579F00CC05A
:1022B000242F492FE12F0AC0492FEF2F2B2F06C0C3
:1022C000292FE42F412F02C0292FEB2F4983288388
:1022D000EA83DF91CF911F910F91FF90EF90DF90F4
:1022E000CF90BF90AF9008955F926F927F928F9240
:1022F0009F92AF92BF92CF92DF92EF92FF920F9395
:102300001F93CF93DF9300D01F92CDB7DEB7182F66
:10231000762E042F622E9091D00190FF6DC0E92F90
:10232000E695AE2FB0E0A95CBE4F8C918093CD01B5
:102330009E7F923061F49E012F5F3F4F812F0E945C
:10234000DB104B8169818A810E946C1043C082300E
:1023500019F40091D3013EC0863019F41091D101D7
:1023600039C08930D9F38931A9F5E9518E2F8170AF
:10237000582EE695F0E0EF5EFC4FA590B49085E511
:10238000C82E82E0D82EE12CF12CBB249CE1892EB2
:10239000912CAE9CC001AF9C900DBE9C900D112461
:1023A000B4010E947C29812F511002C0860F01C008
:1023B000861B9601402F672D0E94DB108FEFE81AD5
:1023C000F80A83E0C80ED11C8CE1E816F10409F785
:1023D0000E949D1E1093D1017092D2010093D301EF
:1023E000662051F06091D0017091D1018091D201AD
:1023F0009091D3010E9497100F900F900F90DF9152
:10240000CF911F910F91FF90EF90DF90CF90BF90F1
:10241000AF909F908F907F906F905F900895E0EDC8
:10242000F1E0438128E0421B08F440E021E06281B2
:1024300081810C947411E0EDF1E0438128E0420FBA
:1024400008F44FEF21E0628181810C947411E0ED7A
:10245000F1E0628128E0621B08F460E021E0438142
:1024600081810C947411E0EDF1E0628128E0620F4B
:1024700008F46FEF21E0438181810C947411E0ED49
:10248000F1E0818121E04381628188500C947411D4
:10249000E0EDF1E0818121E043816281885F0C946D
:1024A00074119091D00190FF36C09170811102C0DB
:1024B000926006C08B3210F0946502C0880F982B92
:1024C0009093D001662351F06091D0017091D101B9
:1024D0008091D2019091D3010E9497106091D00118
:1024E000669570E04BE050E08EE091E00E94C029DC
:1024F000892B19F01092CE0102C00E94871E81E044
:102500008093BF0120E04091D3016091D20180917E
:10251000D1010C947411089521E030E0A90102C0AA
:10252000440F551F8A95E2F7CA012091CF01662317
:1025300011F0822B02C0809582238093CF0180917D
:10254000CE01811106C08091D00160E086950E9485
:1025500051128091D00180FF0C949D1E08958091AE
:10256000D0018695815009F48AE261E00C94511201
:102570008091D00186958F5F8B3208F081E061E019
:102580000C945112CF93DF9300D01F92CDB7DEB7DA
:102590009091D00190FF0AC09E012F5F3F4F0E9493
:1025A000DB104B8169818A810E946C100F900F9023
:1025B0000F90DF91CF910895F894E82FE295EF7096
:1025C000F0E031A1282F2F7081E090E001C0880F4A
:1025D0002A95EAF7982F9095932391A392A1892B9E
:1025E00082A3789408958F929F92AF92BF92CF92D8
:1025F000DF92EF92FF920F931F93CF93DF93CDE182
:10260000D1E00EEA11E083E2C82E81E0D82E580115
:10261000912CEE24E394F12CBE018881F894E82FEC
:10262000E295EF70F0E021A18F70A70102C0440F86
:10263000551F8A95E2F7CA01922F982B91A392A178
:102640008095892382A3789400C0E3E2F1E020E042
:1026500030E0812C4191842F82958F7090E0DC01D5
:1026600090968C9190E04F7002C0959587954A9511
:10267000E2F780FD07C08E2D022E01C0880F0A945C
:10268000EAF701C080E0882A2F5F3F4F24303105F0
:1026900009F72196FB0180810E94DC12F0EAFA958D
:1026A000F1F7D5018C91881619F08C9281E001C068
:1026B00080E0982ABFEFAB1ABB0ACC16DD0609F002
:1026C000ABCF992049F081E08093DD010E943E1755
:1026D0009093DC018093DB018091DD01882301F17F
:1026E0002091DB013091DC014FB7F89480914E02CC
:1026F00090914F02A0915002B09151024FBF821BA6
:10270000930B069768F0E5EDF1E084EB91E0D801DA
:102710002D918D0121938A179B07C9F71092DD0136
:10272000892DDF91CF911F910F91FF90EF90DF9056
:10273000CF90BF90AF909F908F900895CF93DF93ED
:102740000E94621EEC018238910559F1A0F4813398
:10275000910509F473C040F48932910509F467C00A
:102760008A9709F472C084C08533910509F458C072
:10277000C997B9F07DC0833E910571F138F4803E70
:102780009105B1F0823E910511F172C0863E91052E
:10279000B9F1873E9105C9F1843E910509F068C001
:1027A00024C08091A80180FD5DC081FD5BC060C038
:1027B0008091A80180FD50C08091A90180FF36C1A1
:1027C0008091A80184FD30C1C3EED0E02FC180917B
:1027D000A80182FF2BC1F4CF8091A80182FD3FC0E8
:1027E0008091A90180FD3EC0EBCF8091A90181FFBE
:1027F0001DC18091A80184FD17C1C7EED0E016C1AC
:102800008091A80183FF12C1F4CF8091A80183FDBC
:102810002CC08091A90181FFECCFC4EED0E006C1AD
:102820008091A80185FF02C1C9E2D0E0FFC080917C
:10283000A80185FFFBC0C5E3D0E0F8C08091A801E6
:1028400086FFF4C0CAE2D0E0F1C08091A80186FF03
:10285000EDC0C1E3D0E0EAC0C9E3D0E0E7C0C2EE1A
:10286000D0E0E4C0C0EED0E0E1C0C6EED0E0DEC013
:10287000C11582E5D80708F066C0C11591E5D907F2
:1028800028F0DC2FCC27C16FD06AD0C0C83ED1055C
:1028900060F5C03ED10508F0C9C0C83AD105B0F412
:1028A000C53AD10540F0C55AD0E0CF58DE4FC881B7
:1028B000D0E0D064BBC0C130D10509F4B7C008F482
:1028C000B3C0C430D10508F4AFC0B0C0CF3BD10510
:1028D00008F0AAC0C85AD0E0CC0FDD1FCC58DE4F9C
:1028E0000990D881C02DD464A1C0C11520E5D207BC
:1028F000E0F0CE0174E0969587957A95E1F78370C4
:102900009C2F937021E030E002C0220F331F9A9574
:10291000E2F73C68382BCF70C695C69580E2C89F19
:10292000E0011124C22BD32B81C0C11580E4D8074C
:1029300018F0DF70D06A7AC0CE019A9581159F4158
:1029400008F474C071C0C11586E5D807F0F5C1154B
:1029500095E5D90750F08C2F0E9429108F71C82F50
:10296000D0E0DC2FCC27D06261C0C11524E5D207AE
:1029700028F0DC2FCC27C46FD06A58C09E0123708A
:1029800033278C2F86958695C115D34578F4C1E001
:10299000D0E002C0CC0FDD1F2A95E2F720E2829F33
:1029A000C0011124C82BD92BDC6840C0C1E0D0E0A5
:1029B00002C0CC0FDD1F2A95E2F720E2829FC00102
:1029C0001124C82BD92BDA6831C0C1152AE5D207EA
:1029D000E8F4C11589E5D80780F08C2F8F700E942C
:1029E000291094E0D695C7959A95E1F7CF70D0E07D
:1029F000DC2FCC27D069C82B19C0C11598E5D907A1
:102A000098F0DC2FCC27C06FD06A10C0CE01905652
:102A10008115904248F48D2F8F710E942910DD2777
:102A2000D0628F71D82B02C0C0E0D0E0CE01DF9120
:102A3000CF910895809580FF02C0589A01C05898A0
:102A400081FF02C05D9A01C05D9882FF02C05C9A5E
:102A500008955C980895DF92EF92FF920F931F9371
:102A6000CF93DF93E82FF0E0EF56FE4FD490282F5E
:102A700026952695269530E0F901EF57FE4F0491F3
:102A8000877010E0082E02C0159507950A94E2F7AA
:102A900001701127F901EF58FE4FE490F12C082E38
:102AA00002C0F594E7940A94E2F791E0E922FF244A
:102AB000F901EF59FE4FC491D0E002C0D595C795FA
:102AC0008A95E2F7C170DD270115110519F081EE35
:102AD0000E940F27E114F10419F086EE0E940F27DF
:102AE0008D2D0E948227EF2819F086EE0E94DD26A8
:102AF000012B19F081EE0E94DD26CD2B51F08CE2E6
:102B0000DF91CF911F910F91FF90EF90DF900C9488
:102B10008227DF91CF911F910F91FF90EF90DF906F
:102B20000895CF92DF92EF92FF920F931F936B0164
:102B30007C01611571058105910511F0617001C07D
:102B400061E080E00E948C12C114D104E104F10420
:102B500049F0D701C601B695A79597958795682F37
:102B6000617001C060E081E00E948C12C114D10448
:102B7000E104F10461F0D701C60122E0B695A79502
:102B8000979587952A95D1F7682F617001C060E00D
:102B900082E00E948C12C114D104E104F10461F0BE
:102BA000D701C60103E0B695A795979587950A9535
:102BB000D1F7682F617001C060E083E00E948C1241
:102BC000C114D104E104F10461F0D701C60114E09D
:102BD000B695A795979587951A95D1F7682F617047
:102BE00001C060E084E00E948C12A701662777276D
:102BF000411551056105710511F080E103C0B70170
:102C0000A60180E0052F162F272F33270115110568
:102C10002105310519F0885FB901A8018A019B01DE
:102C2000F4E03695279517950795FA95D1F7011594
:102C300011052105310519F08C5FB901A8018A0140
:102C40009B01E2E03695279517950795EA95D1F710
:102C5000011511052105310519F08E5FB901A80193
:102C60007695679557954795452B462B472B09F049
:102C70008F5F8230C1F048F4882381F08130F1F415
:102C800020E040E56FEF85E017C0833089F08430A5
:102C9000A9F420E040E56FEF8FE00EC020E040E5B2
:102CA0006FEF82E309C020E040E56FEF80E804C0E9
:102CB00020E040E56FEF87ED0E947411C701B60177
:102CC0001F910F91FF90EF90DF90CF90089508959E
:102CD00080913D03089580E00895CF93DF9300D065
:102CE0001F92CDB7DEB790916003943011F58983C0
:102CF0007B836A839093E9008FEF9091E800815085
:102D000095FD06C095ED9A95F1F700008111F5CF7C
:102D10008091E80085FF0DC040E050E063E070E086
:102D2000CE0101960E9487268091E8008E778093DD
:102D3000E8000F900F900F90DF91CF910895BC01A4
:102D400084E00C946D16BC0183E00C946D16CF9357
:102D5000DF9320911C01222339F02091A80127FF45
:102D600003C060E224E002C068E021E02093E900B3
:102D70002FEF3091E800215035FD06C035ED3A9532
:102D8000F1F700002111F5CF2091E80025FF1DC0CB
:102D9000EC0180911C01811105C040E050E068E029
:102DA00070E003C070E040E050E0CE010E94872652
:102DB0008091E8008E778093E80080E2FE01AEE328
:102DC000B3E001900D928A95E1F7DF91CF910895DC
:102DD00081E08093E00080E28093D8001092C900E7
:102DE0008FE19EE40197F1F700C0000087E090EBCF
:102DF000DC0180936E0390936F03A0937003B093F4
:102E000071039CE088E10FB6F894A8958093600068
:102E10000FBE90936000FFCF78941F920F920FB671
:102E20000F9211248F939F93AF93BF9380914E0283
:102E300090914F02A0915002B09151020196A11DB4
:102E4000B11D80934E0290934F02A0935002B09315
:102E50005102BF91AF919F918F910F900FBE0F9034
:102E60001F9018952FB7F89460914E0270914F0201
:102E700080915002909151022FBF08952FB7F8947E
:102E800080914E0290914F02A0915002B091510258
:102E90002FBF08951F920F920FB60F9211248F9398
:102EA0009F93AF93BF938091B901811113C080911B
:102EB0004E0290914F02A0915002B0915102419662
:102EC000A11DB11D80934E0290934F02A09350021A
:102ED000B0935102BF91AF919F918F910F900FBE10
:102EE0000F901F90189520911C012223C9F020916A
:102EF000A80127FF15C0262F2695269526952E3149
:102F0000C8F4FC01E20FF11D677081E090E001C0A0
:102F1000880F6A95EAF780959281892382830895C4
:102F2000FC0106962281621301C012823196E817D5
:102F3000F907C1F7089520911C012223C1F02091C7
:102F4000A80127FF14C0262F2695269526952E31F9
:102F500030F5FC01E20FF11D677081E090E001C0E7
:102F6000880F6A95EAF79281892B82830895FC0184
:102F700032962FEF30E04191641789F02F3F19F41A
:102F8000411101C0232F3F5F3630A9F72F3F39F0A1
:102F9000FC01E20FF11D27FDFA9562830895089563
:102FA000CF9384E090E00E94B728C82F82E290E09F
:102FB0000E94B7282C2F30E0A901582BCA01CF91CD
:102FC00008956AEE7EEF80E090E00E94E92860E0DC
:102FD00082E090E00E94CB2860E083E090E00E94D5
:102FE000CB2810924A0210924B0210924C0210927F
:102FF0004D0260E084E090E00E94CB2860E082E235
:1030000090E00E94CB2860E085E090E00E94CB2811
:1030100060E086E090E00E94CB286FEF87E090E0D0
:103020000E94CB2840E050E0BA0188E090E00E9486
:10303000DD2860E08DE090E00E94CB2840E050E089
:10304000BA0188E190E00E94DD2860E087E190E02D
:103050000E94CB2840E050E0BA018CE190E00E9451
:10306000DD2860E070E080E290E00E94E92840E026
:1030700050E0BA0188E190E00E94DD2840E050E095
:10308000BA018FE090E00E94DD2840E050E0BA01F4
:1030900083E190E00C94DD28809149028111109227
:1030A000490208959091480280914702892B20910E
:1030B0004602982F922B9093DE018091490288233B
:1030C000D9F0892B8093DE0180911C01882331F097
:1030D0008091A80187FF02C08EE101C086E0E0EE8A
:1030E000F1E090E0815028F021912223D9F39F5FF5
:1030F000F9CF91110E944C18E091B701F091B801FD
:103100003097A9F080911C01882359F08091A80183
:1031100087FF07C08091DE018093DF0185E0809307
:10312000DE010280F381E02D8EED91E00994089597
:1031300080E090E00E94571D80E090E00E94411DD9
:1031400010924702109246020C945218CF93C091ED
:10315000A901C2FB992790F9981781F080FBC2F969
:10316000C093A9016091A80184E090E00E94CB285F
:103170006C2F82E290E0CF910C94CB28CF910895F0
:10318000BF92CF92DF92EF92FF920F931F93CF9354
:10319000DF938C01C0906A03D0906B03E0906C03C6
:1031A000F0906D0380914A0290914B02A0914C02E5
:1031B000B0914D02C82AD92AEA2AFB2ACFE1D0E0F1
:1031C000D701C6010C2E04C0B695A7959795879593
:1031D0000A94D2F780FD04C0219790F7B12C07C064
:1031E000BC2EB8018C2F0E949E130197A9F38B2D42
:1031F000DF91CF911F910F91FF90EF90DF90CF90D3
:10320000BF900895CF93DF93EC010E94C018BE01D8
:103210000E949E13DF91CF9108950E940219292FD9
:103220002F70E92FE295EF704E2F50E0FA013297A0
:10323000EE30F105B8F4EB58FF4F0C94A429803F11
:1032400099F018F4883E70F40FC0843F59F40CC014
:10325000883E50F0813F31F407C0822F86958695D5
:103260008695089580E0089581E00895990F990F5B
:10327000890F682F669566956695982F977085E0FB
:10328000689FB001112440E050E080E0FB01E40FB2
:10329000F51FEA5CFD4F208130E0092E02C0369513
:1032A00027950A94E2F721703327042E01C0220FDC
:1032B0000A94EAF7822B4F5F5F4F4530510531F793
:1032C0000895990F990F890FE82FE695E695E695F1
:1032D000877051E001C0550F8A95EAF785E0E89FB5
:1032E000F0011124EA5CFD4F20E030E070E0408105
:1032F000CB01022E02C0969587950A94E2F7817061
:10330000819584278523842781932F5F3F4F253024
:10331000310569F708950E94911560936A037093CF
:103320006B0380936C0390936D030C9498180F9328
:103330001F9341E050E060E070E004C0440F551F6F
:10334000661F771F8A95D2F74095509560957095C6
:1033500080916A0390916B03A0916C03B0916D030F
:103360008A019B01082319232A233B23C901B801A1
:103370001F910F910C948B19209145028095822307
:1033800080934502982F977041F430E0482F082E23
:10339000000C550B2417350721F49091A90192FFD9
:1033A00007C08595859585950E94971910924502CD
:1033B00008950F931F9341E050E060E070E004C077
:1033C000440F551F661F771F8A95D2F780916A03B5
:1033D00090916B03A0916C03B0916D038A019B01E6
:1033E000082B192B2A2B3B2BC901B8011F910F91D8
:1033F0000C948B1960934A0270934B0280934C0299
:1034000090934D020C94981880913502909104028B
:10341000891719F08F5F8770FBCF08950F931F9363
:10342000CF93DF938091030282958F7009F05DC086
:1034300080910002882309F458C0809135021091D0
:1034400004026091FE017091FF01C0910102D091D0
:10345000020291E06F3F09F090E0292F06E081170A
:1034600009F443C0209721F07F3F21F030E003C0F2
:1034700031E001C0322F90E030FD34C0089FF001F0
:10348000099FF00D1124DF01AB5FBD4F11963C91F8
:103490001197371327C03C91361324C012963C91E4
:1034A000129731111FC013964D915C9114974C1BCC
:1034B0005D0B483C5105B0F4809103028F70806130
:1034C00080930302E65FFD4F80818F70806180836F
:1034D0008EEF91E00E947203DF91CF911F910F91C7
:1034E0000C94041A01968770BACFDF91CF911F9187
:1034F0000F9108959F92AF92BF92CF92DF92EF9279
:10350000FF920F931F93CF93DF93CDB7DEB76197F1
:103510000FB6F894DEBF0FBECDBF8C0185E0F80179
:10352000DE011D9601900D928A95E1F7F8019081D8
:103530008181E2803091FE016091FF0140910102A2
:10354000509102024115510531F06F3F31F421E0F5
:103550003F3F19F403C021E001C020E0F22FF170D9
:103560009F2E20FD23C1F801C380D4802EEFA22E10
:1035700021E0B22EF0900002F601E41BF50BFF20D3
:1035800009F4CEC020910302E83CF10508F099C08F
:10359000422F407F09F051C0681311C039130FC08A
:1035A000FE2CE1100CC02F70206120930302C50196
:1035B0000E94720380910302F801858337C1CD28F0
:1035C00031F08F3F31F421E09F3F19F403C021E037
:1035D00001C020E020FD03C021E02E2502C020E034
:1035E00030E0F22FF170FF2E20FF1DC02091350238
:1035F0004091040256E0241709F4F6C030E0529FCF
:10360000F001539FF00D1124EB5FFD4F6181861394
:1036100006C06081961303C06281E61204C02F5F6A
:103620003F4F2770E8CFFE2CEE2009F4FFC08091B9
:10363000030281608093030250C0681307C03913EE
:1036400005C0E11003C0F80125838DC09D878E87DA
:103650008D859E850E940D19882369F1EE2059F110
:1036600020910302822F82958F7090E0029774F070
:103670008091FE019091FF0198878F831986DB86E8
:10368000CA862C87CE0107960E94720386E0F80155
:10369000AEEFB1E001900D928A95E1F70E940E1A0B
:1036A0000DC06817E1F09D878E878D859E850E94ED
:1036B0000D1981111EC0C8010E947203FF24F394EA
:1036C000B5C0422F407F69F78EEF91E00E947203F0
:1036D00086E0F50111928A95E9F7F12CA7C039131C
:1036E000E2CFE110E0CFF8012583C8010E94720308
:1036F00057C0EE2001F320910302822F82958F7034
:1037000090E002971CF28091FE019091FF019A8354
:1037100089831B82DD82CC822E83CE010196B4CFB9
:10372000E83CF105E8F5FE2CEE2029F2681327C0ED
:10373000391325C02091030220FD18C0822F8295E5
:103740008F70482F50E04115510581F0F801258315
:103750004F30510541F08F5F982F9295907F822FC7
:103760008F70892B8583C8010E94720386E0F8015F
:10377000AEEFB1E001900D928A95E1F757C09D87B9
:103780008E878D859E850E940D1981117FCF809136
:103790000302816080930302C8010E94720346C045
:1037A00086E0F50111928A95E9F740C0EE2009F410
:1037B00082CF9D878E878D859E850E940D19F82E5C
:1037C000882309F478CF86E0F801AEEFB1E00190EC
:1037D0000D928A95E1F78091FE019091FF010E9480
:1037E00002190E940E1A22C09D878E878D859E85A4
:1037F0000E940219292F22952F70223028F49F70E1
:1038000039F0811105C00BC0243028F49F7049F4B1
:10381000805E883020F0C8010E9472039F2CF92C32
:1038200005C0F8019581907F99F7F9CF8F2D6196AA
:103830000FB6F894DEBF0FBECDBFDF91CF911F91C1
:103840000F91FF90EF90DF90CF90BF90AF909F903F
:1038500008951092480280911C01882331F08091D4
:10386000A80187FF02C08EE101C086E0E0EEF1E032
:10387000DF011D928A95E9F70C94981808950F932B
:103880001F93CF93DF9300D01F92CDB7DEB78C018B
:103890008091540281110AC09E012F5F3F4F44EB7B
:1038A0006FEF0E94DB108A8180935402F8018481BB
:1038B000813051F028F0823061F4409154020AC006
:1038C0008091540240E007C06091540240E080E0E3
:1038D00003C040E080E060E00E946C10F801848149
:1038E00090E0019663E070E00E94902984830F903D
:1038F0000F900F90DF91CF911F910F910895CF936B
:10390000DF93EC01E0EDF1E0438162818C810E9464
:10391000C2128C818F5F8C83DF91CF910895CF93FA
:10392000DF93EC01EC81F0E0EE5CFC4F4491E0EDC4
:10393000F1E0628181810E94C2128C818F5F8C8351
:10394000DF91CF9108951F93CF93DF93CDB7DEB76B
:1039500067970FB6F894DEBF0FBECDBF342F4B8BE9
:10396000252F5C8B6D8B7E8B8F8B4E895F896111D0
:103970001092470286E0FE013D96DF01982F1D92CE
:103980009A95E9F73D872E876F87598B488BDE0123
:10399000179601900D928A95E1F7CE0107960E9445
:1039A0007A1A81113EC086E0FE013796DE0111963B
:1039B00001900D928A95E1F7FF81E8856A857B8504
:1039C0006115710531F0EF3F31F481E0FF3F19F4EB
:1039D00003C081E001C080E080FD23C0209104028B
:1039E00030E0C9010196877099274091350250E077
:1039F0008417950779F1F983EA837D836C8396E0D8
:103A0000929FD001939FB00D1124AB5FBD4FFE017B
:103A1000319601900D929A95E1F7809304020E94ED
:103A2000041A16E080913502909104028917F9F08A
:103A3000189FC00111248B5F9D4F0E947A1A882322
:103A4000B1F08091350290E00196877099278093BC
:103A50003502E8CF0E94291C109204021092350210
:103A6000EEEFF1E086E0DF011D928A95E9F76796B7
:103A70000FB6F894DEBF0FBECDBFDF91CF911F917F
:103A800008952091390330913A032817390771F0CE
:103A900090933A0380933903E091B701F091B80114
:103AA000309721F00084F185E02D0994089520914C
:103AB0003703309138032817390771F09093380392
:103AC00080933703E091B701F091B801309721F06E
:103AD0000680F781E02D09940895E091B701F091F7
:103AE000B801309721F00190F081E02D099480E039
:103AF00008950F931F93CF93DF93C42F122FFC01D0
:103B000082818823C9F04093A6010E943E179093BA
:103B100036038093350380E28C0F883008F063C051
:103B2000C77081E001C0880FCA95EAF7DF91CF9195
:103B30001F910F910C94D3268091A60148133CC08D
:103B400020913503309136034FB7F89480914E029F
:103B500090914F02A0915002B09151024FBF821B31
:103B6000930B883C910540F5D0E2D10FC117B9F015
:103B700080E28C0F883040F4C77081E001C0880F6C
:103B8000CA95EAF70E94C826D83030F581E0912F17
:103B9000977001C0880F9A95EAF70E94D326802F6C
:103BA0000E948227D830F8F4212F277081E001C0CD
:103BB000880F2A95EAF70AC080E28C0F883098F4C3
:103BC000C77081E001C0880FCA95EAF7DF91CF91F5
:103BD0001F910F910C94C826802FDF91CF911F91D8
:103BE0000F910C948227DF91CF911F910F9108952F
:103BF000CF93DF93C7EED0E060E0CE010E94CB28E8
:103C00002196C11584E0D807B9F7DF91CF910895C7
:103C1000CF92DF92EF92FF920F931F93CF93DF9398
:103C2000C0E0D0E08E01005D1F4F6E0188E0C80E3D
:103C3000D11CFE01EE5CFB4FE590F4906F2DCE01A0
:103C400087960E94CB286E2DCE0188960E94CB28A5
:103C50002296CC15DD0569F70C171D0731F7E80131
:103C6000003C1105F9F6DF91CF911F910F91FF9064
:103C7000EF90DF90CF9008950F931F93CF93DF9332
:103C8000C42FD0E0CC0FDD1F28E0629FC00DD11DF6
:103C9000112430E3839FC00DD11D1124CE018796DE
:103CA0000E94B728082F10E0102F0027CE01889619
:103CB0000E94B7289801282BC901DF91CF911F914D
:103CC0000F910895462F843038F4763028F464300C
:103CD00018F4672F0C943C1E80E090E008959091BA
:103CE000D00190FF04C09695981740F003C0811151
:103CF00005C090E0961710F40C94B81261E00C9493
:103D00005112882311F0FA0101C0FB01099460915E
:103D1000D001669570E04BE050E08EE091E00E94AB
:103D2000C029892B19F481E08093CE010E943E17AF
:103D30009093BD018093BC0108956F927F928F9202
:103D40009F92AF92BF92CF92DF92EF92FF920F932A
:103D50001F93CF93DF93CDB7DEB7C455D1090FB60C
:103D6000F894DEBF0FBECDBF8091D00180FF08C0A8
:103D70008090B5019090B6018114910469F426C039
:103D8000E5E5F2E089EA92E0118210821282339630
:103D90008E179F07C9F7ECCF8091BB01811116C028
:103DA000A12CB12C66246394712C2091CF01C30106
:103DB0000A2C01C0880F0A94EAF7822309F444C050
:103DC000F401C590D490C114D10469F406E113E064
:103DD0009E012F5F3F4FAE014B5A5F4FB90140C06C
:103DE000F5E0CF0ED11C45E050E0B601CE010196C2
:103DF0000E94AE2809810F3F39F110E08A819801B5
:103E0000280F311DC9012D31310514F08CE190E0EE
:103E10007C01EE0CFF1C8E0D9F1DFC01EB5AFD4F2B
:103E20007F01C801880F991F080F191F0B5A1D4FDA
:103E30000E151F05A8F698014D816C818B810E949B
:103E4000DB100D5F1F4FF4CF22E0820E911C3FEF7D
:103E5000A31AB30A88E0A816B10409F0A6CFB6CF1A
:103E6000F801849190E0DC01AA0FBB1F8A0F9B1F11
:103E7000DC01AB5ABD4F8D919D91AC91FB018193BB
:103E80009193A193BF010F5F1F4F4E175F0741F73B
:103E9000279A85B18F7795B190686FB7F8942417FA
:103EA000350799F0F90171919F01E8E095B900009B
:103EB00000C077FF85B9770F000000C000C000C0C8
:103EC00085B900C0EA9591F7EACF6FBF8FE594E01E
:103ED0000197F1F700C00000CC5ADF4F0FB6F894FD
:103EE000DEBF0FBECDBFDF91CF911F910F91FF902D
:103EF000EF90DF90CF90BF90AF909F908F907F908A
:103F00006F9008959F92AF92BF92CF92DF92EF92FF
:103F1000FF920F931F93CF93DF93FC01A2809480B5
:103F200081E08483E2E3F3E0B490E1EBF3E0E49139
:103F3000C9EAD2E0F5E5EF2EF2E0FF2ECC24CA94D8
:103F4000D12CEB190E2F10E022E02A1530F08091D1
:103F5000D10188838091D2018983911003C01B8293
:103F60001A8255C08B818823F9F081508B832FEF03
:103F7000829FC00111246C8170E00E947C29FB01AA
:103F8000FF27EE5CFC4F8491E82FEB192FEFE29FA7
:103F9000C0011124B8010E947C298091D301689F3F
:103FA000B00111247A8333C00E949E282091D3014E
:103FB0002695215830E0A901440F551F322F2227A2
:103FC000240F351F232F33278217930704F582E030
:103FD0008A1588F40E949E28B6010E949029888341
:103FE0000E949E282091D2012695622F70E00E94A7
:103FF0009029280F29831A828091D301843120F0DF
:10400000893C18F088EC01C084E18C838B83970194
:104010004A81698188810E94DB10259623E0E20EA7
:10402000F11C83E0C533D80709F08ECFDF91CF9123
:104030001F910F91FF90EF90DF90CF90BF90AF90C6
:104040009F900C949D1EEF92FF920F931F93CF931E
:10405000DF938C01C5E5D2E0E12CF12CF8018481DD
:10406000FEE0EF16F1041CF4882339F002C0811140
:1040700004C09E014091D30102C09E0140E06091C6
:10408000D2018091D1010E94DB108FEFE81AF80A6B
:1040900023969CE1E916F10409F70E949D1EF801A0
:1040A000848190E00196817099278483DF91CF917C
:1040B0001F910F91FF90EF9008958F929F92AF9272
:1040C000BF92CF92DF92EF92FF920F931F93CF9305
:1040D000DF93EC014C81042F10E09801D8010E947D
:1040E00053299B01AC010E941E296B017C01E0E277
:1040F000F0E0E01BF10BA5E5B0E09B01AC010E94F4
:104100001E294B015C019F01DF010E94B1299B0127
:10411000AC010E9429299B01AC012C0D3D1D4E1DB7
:104120005F1DC501B4010E943129822FF22E99E250
:10413000921728F093E0299F900111240DC025E5E6
:1041400030E0281B3109C901880F991F280F391F3A
:1041500037FF02C02F5F3F4F35952795122F1095DF
:1041600095E5C92E92E0D92E00E085E5E82EEF18FE
:1041700001FD02C08E2D01C08F2D9601412F60914F
:10418000D2010E94DB100F5F83E0C80ED11C0C31FE
:1041900079F70E949D1E8C81811102C091E003C0BD
:1041A000803219F49FEF90931B0190911B01890FAE
:1041B0008C83DF91CF911F910F91FF90EF90DF9053
:1041C000CF90BF90AF909F908F9008950F931F93C3
:1041D000CF93DF93C5E5D2E0FE01118210821282F7
:1041E000339682E0E93AF807C1F700E010E08091E9
:1041F0005302082E000C990B0817190794F08091B0
:104200001A01082E000C990B8017910754F09E019B
:104210004091D3016091D2018091D1010E94DB10C5
:1042200003C0198218821A820F5F1F4F23960C3128
:104230001105E9F60E949D1E80911901909153028B
:10424000980F9093530220911A01280F20931A017E
:10425000121614F49B311CF0819580931901DF91A3
:10426000CF911F910F910895BF92CF92DF92EF925D
:10427000FF920F931F93CF93DF93FC01828180FF06
:1042800003C0DD24DA9402C0DD24D39405E512E0F6
:10429000C0E0D0E02CE1B22EF8011182108212822F
:1042A00094E0E92EF12CC12C809152028C0D8D31BD
:1042B0002CF06B2D0E946E29892F02C087FD845E31
:1042C000082E000C990BC817D90791F48091D301DF
:1042D0008E9DA0018F9D500D1124559547955595A4
:1042E000479598016091D2018091D1010E94DB1025
:1042F000CD0CF1E0EF1AF108B9F621960D5F1F4FD2
:10430000CC31D10549F60E949D1E8091520291E068
:10431000D91206C0811102C08BE107C0815005C0CF
:1043200090E00196BE010E94902980935202DF9195
:10433000CF911F910F91FF90EF90DF90CF90BF90A2
:104340000895EF92FF921F93CF93DF93EC0185E5E1
:10435000E82E82E0F82E10E08C8197014091D30185
:104360006091D201810F0E94DB10175F83E0E80E9D
:10437000F11C1C3F89F70E949D1E9A818C8190FF41
:1043800002C08F5F01C081508C83DF91CF911F915C
:10439000FF90EF9008950F931F9380916A0390917F
:1043A0006B03A0916C03B0916D038C019D010670AD
:1043B000112722273327BC01CD0106301105210525
:1043C000310511F4686001C0677F1F910F910C9453
:1043D0008B191F93CF93DF93CDB7DEB7AA970FB694
:1043E000F894DEBF0FBECDBFE2E6F3E08091F100AE
:1043F000819343E0EA36F407C9F780916303833081
:1044000009F462C030F4813071F0823009F49CC04C
:10441000B3C08A3009F488C08B3009F46DC089308C
:1044200009F0AAC020C080916203813A09F0A4C0BB
:104430008091E800877F8093E800809166039091E7
:104440006703892B21F460E28EE393E003C060E010
:1044500080E090E070E00E94F4278091E8008B7784
:104460008093E80089C080916203813209F084C0A2
:104470008091660390916703009719F0029709F005
:104480007BC08091E800877F8093E8008091E800FE
:1044900082FD05C0809160038111F8CF6DC020912D
:1044A000F3008091F20090E0922B029729F4809122
:1044B000F1008B7F813021F48091F10080933D03E6
:1044C0008091E8008B7754C080916203813A09F0B3
:1044D00053C08091660390916703892B09F04CC00B
:1044E0008091E800877F8093E8008091E80080FF5A
:1044F000FCCF80911C0137C0809162038132E1F5CD
:104500008091660390916703892BB1F58091E80053
:10451000877F8093E8000E94A027809164038093A6
:104520001C010E94291C28C080916203813221F560
:104530008091E800877F8093E8000E94A027809107
:10454000650380933C0318C080916203813AA1F413
:104550008091E800877F8093E8008091E80080FFE9
:10456000FCCF80913C038093F1008091E8008E772E
:104570008093E8000E94A0278091E80083FFDDC1BE
:104580008091620390916303492F50E04A305105B6
:1045900008F0D3C1FA01ED57FF4F0C94A4298038DD
:1045A00021F0823809F0C9C108C080915E03909162
:1045B0005F03992389F082600FC0809166038F703A
:1045C000873008F0BAC18093E9008091EB0085FB49
:1045D000882780F91092E9009091E800977F9093E6
:1045E000E8008093F1001092F10070C1282F2D7F18
:1045F00009F0A3C1882319F0823061F09EC1809137
:104600006403813009F099C1933009F080E0809310
:104610005F032EC08091640381112AC080916603DC
:104620008F702FEF280F263008F087C18093E900A4
:104630002091EB0020FF1CC0933021F48091EB000F
:10464000806214C09091EB0090619093EB0021E0A8
:1046500030E0A90102C0440F551F8A95E2F740934C
:10466000EA001092EA008091EB0088608093EB00F2
:104670001092E9008091E800877F8093E8000E9413
:10468000A0275BC1811159C1109164031F778091EC
:10469000E3008078812B8093E3008091E800877F9E
:1046A0008093E8000E94A0278091E80080FFFCCF63
:1046B0008091E30080688093E300111102C082E0E2
:1046C00001C083E08093600338C18058823008F0D5
:1046D00034C120916403309165032C3D53E03507CC
:1046E00079F583E08A838AE289834FB7F894DE0103
:1046F000139620E03EE051E2E32FF0E050935700A4
:10470000E49120FF03C0E295EF703F5FEF708E2FC2
:1047100090E0EA3010F0C79601C0C0968D939D934B
:104720002F5F243149F74FBF8091E800877F809346
:10473000E8006AE270E0CE0101960E94F427B4C05E
:104740008091660390916703432F552743305105AD
:10475000A9F068F44130510509F4FEC0423051051A
:1047600009F0EBC08BE590E0E1ECF5E04BC04132A5
:10477000510529F14232510589F1DFC0C90199275C
:1047800081309105A1F058F0029709F0D6C0EEE211
:10479000F6E0E4918E2F90E0EEE2F6E030C0EEE439
:1047A000F6E0E4918E2F90E0EEE4F6E028C0EAE334
:1047B000F6E0E4918E2F90E0EAE3F6E020C083304B
:1047C000910508F0BAC0880F991FFC01E559FE4F0A
:1047D0000190F081E02D89E090E014C083309105D4
:1047E00008F0ABC0FC01EE0FFF1FEB59FE4F01902C
:1047F000F081E02DDC01AE59BE4F8C9190E0009726
:1048000009F49BC02091E800277F2093E8002091C5
:104810006803309169032817390708F4C90140E09B
:10482000009789F120916003222309F43DC02530CF
:10483000D9F12091E80023FD37C02091E80022FD46
:104840002FC02091E80020FFEBCF4091F300209192
:10485000F20030E0342B009759F02830310540F455
:1048600044914093F100319601972F5F3F4FF3CF72
:1048700041E02830310509F040E02091E8002E7732
:104880002093E800CDCF4111CDCF0AC080916003C5
:10489000882351F0853041F08091E80083FD04C009
:1048A0008091E80082FFF2CF8091E8008B778093BF
:1048B000E80043C0803809F040C08091E800877F5D
:1048C0008093E800809161038093F1008091E8007B
:1048D0008E77D3CE811131C08091640390916503AE
:1048E0009927029754F58091E800877F8093E8002C
:1048F00010916403109361030E94A027111106C058
:104900008091E30087FD02C081E001C084E08093D4
:10491000600342E061EC81E00E94BF2742E261EC6B
:1049200084E00E94BF2742E261EC82E00E94BF2740
:1049300042E260EC83E00E94BF278091E80083FFA1
:1049400010C08091E800877F8093E8008091EB00A1
:1049500080628093EB0005C082E190E0ECE1F6E03C
:1049600051CFAA960FB6F894DEBF0FBECDBFDF9130
:10497000CF911F9108951F920F920FB60F9211249D
:104980002F933F934F935F936F937F938F939F9357
:10499000AF93BF93CF93DF93EF93FF93C091E90061
:1049A000CF708091EC00D82FD17080FDD0E81092AC
:1049B000E9008091F000877F8093F00078940E9456
:1049C000E9211092E9008091F00088608093F00066
:1049D000CD2BCF70C093E900FF91EF91DF91CF9184
:1049E000BF91AF919F918F917F916F915F914F9107
:1049F0003F912F910F900FBE0F901F901895E8EDEB
:104A0000F0E080818E7F80831092E2001092DA00C5
:104A10001092E100A0EEB0E08C9181608C938081D7
:104A20008F77808319BCA7EDB0E08C918E7F8C933B
:104A300080818F7E808310923B030895CF92DF9216
:104A4000EF92FF920F931F93CF93DF93C8EDD0E0C7
:104A500088818F7E8883E7EDF0E0808181608083AC
:104A600084E082BF81E080933B0388818E7F8883CE
:104A700002EE10E0F80110821092DA0081EEC82EEA
:104A8000D12CF601108288818F7788838881806895
:104A9000888388818F7D888319BC1092600310926F
:104AA000610310925F0310925E0390EEE92EF12CE9
:104AB000F70180818B7F808388818160888342E0D9
:104AC00060E080E00E94BF27F60180818E7F8083B6
:104AD000F801808181608083808188608083F70114
:104AE00080818E7F8083888180618883DF91CF91F0
:104AF0001F910F91FF90EF90DF90CF9008951F923C
:104B00000F920FB60F9211242F933F934F935F9301
:104B10006F937F938F939F93AF93BF93EF93FF9385
:104B20008091E10082FF09C08091E20082FF05C010
:104B30008091E1008B7F8093E1008091DA0080FF1B
:104B40002AC08091D80080FF26C08091DA008E7F35
:104B50008093DA008091D90080FF18C080E189BD80
:104B600082E189BD09B400FEFDCF81E0809360033E
:104B700080913B0381110FC00E94FF240E941E25DB
:104B80008091E20084608093E20005C019BC10921D
:104B9000600310923B038091E10080FF17C0809179
:104BA000E20080FF13C08091E2008E7F8093E200DC
:104BB0008091E20080618093E2008091D800806261
:104BC0008093D80019BC85E0809360038091E10058
:104BD00084FF2EC08091E20084FF2AC080E189BD5D
:104BE00082E189BD09B400FEFDCF8091D8008F7DA0
:104BF0008093D8008091E1008F7E8093E1008091C6
:104C0000E2008F7E8093E2008091E20081608093D9
:104C1000E20080916103882311F084E007C0809155
:104C2000E30087FD02C081E001C083E08093600360
:104C30008091E10083FF27C08091E20083FF23C0C1
:104C40008091E100877F8093E10082E080936003A0
:104C5000109261038091E1008E7F8093E10080914A
:104C6000E2008E7F8093E2008091E2008061809379
:104C7000E20042E060E080E00E94BF278091F00007
:104C800088608093F000FF91EF91BF91AF919F9169
:104C90008F917F916F915F914F913F912F910F90E5
:104CA0000FBE0F901F9018952091E4003091E50001
:104CB00095E64091EC00842F817040FF23C08091E5
:104CC000E80080FD1DC080916003882399F0853045
:104CD00099F08091EB0085FD11C04091E400509166
:104CE000E5002417350729F3915011F09A01E1CF1F
:104CF00084E0089582E0089583E0089581E00895B6
:104D000080E008954091E80042FFDDCF0895EF92E2
:104D1000FF920F931F93CF93DF937C018B010E942F
:104D20005426811119C0E70101151105A1F08091E8
:104D3000E80085FD0AC08091E8008E778093E80046
:104D40000E945426882381F307C089918093F10043
:104D500001501109E9CF80E0DF91CF911F910F91B0
:104D6000FF90EF900895882341F08095909147023D
:104D70008923809347020C9452180895882339F0B0
:104D800090914702892B809347020C945218089502
:104D9000882341F0809590914802892380934802AE
:104DA0000C9452180895882339F090914802892B69
:104DB000809348020C9452180895882379F19CEF4F
:104DC000980F913A30F4682F8EED91E00E9473179E
:104DD00014C090E2980F983090F4877021E030E092
:104DE000A90102C0440F551F8A95E2F7CA018095B8
:104DF000909148028923809348020C9452189BE5B5
:104E0000980F933020F480E090E00C94571D885A5E
:104E1000873120F480E090E00C94411D0895CF93F9
:104E2000882309F46DC09CEF980F913AC8F5C82FFC
:104E300080911C018823E1F08091A80187FF18C0B0
:104E4000EC2FE695E695E695F0E0E252FE4F828182
:104E5000282F30E04C2F477081E090E002C0880F8F
:104E6000991F4A95E2F782239323892B61F412C09C
:104E7000E0EEF1E086EE91E02191C21721F08E176D
:104E80009F07D1F707C06C2F8EED91E00E9473173A
:104E90000E9452186C2F8EED91E00E949B1713C058
:104EA00090E2980F983090F4877021E030E0A901EB
:104EB00002C0440F551F8A95E2F7CA01909148023B
:104EC000892B80934802CF910C945218EBE5E80FA0
:104ED000E33040F4F0E0EF58FE4F808190E0CF9156
:104EE0000C94571D885A873158F4E82FF0E0EE0FE4
:104EF000FF1FEC58FE4F80819181CF910C94411D92
:104F0000CF9108951F93CF93DF93182F893319F012
:104F1000C0E0D0E002C0C0E5D0E0812F0E940F27A2
:104F2000209741F08FE99FE00197F1F700C0000062
:104F30002197F6CF812FDF91CF911F910C94DD2621
:104F40008091620387FF11C08091E80082FD05C057
:104F5000809160038111F8CF11C08091E8008B77B8
:104F60000BC080916003882349F08091E80080FFA6
:104F7000F8CF8091E8008E778093E8000895982F0D
:104F8000973068F59093E900981739F07091EC002C
:104F90002091ED005091F00003C0242F762F50E0B7
:104FA00021FD02C09F5FECCF3091EB003E7F30933C
:104FB000EB003091ED003D7F3093ED003091EB0040
:104FC00031603093EB007093EC002093ED00509330
:104FD000F0002091EE0027FDE5CF80E008958F706E
:104FE0008093E90081E0089520916803309169037E
:104FF0002617370748F06115710539F42091E8004C
:105000002E772093E80001C0B901FC0120E0611572
:10501000710579F1809160038823F1F18530F1F118
:105020008091E80083FD3CC08091E80082FD2EC0A5
:105030008091E80080FFEBCF2091F3008091F20097
:1050400090E0922B6115710551F08830910538F48C
:1050500021912093F100615071090196F3CF21E075
:10506000089709F020E08091E8008E778093E800AF
:10507000CECF2111CFCF0AC080916003882361F089
:10508000853061F08091E80083FD0AC08091E800DE
:1050900082FFF2CF80E0089582E0089583E00895D2
:1050A00081E008958F929F92AF92BF92CF92DF924C
:1050B000EF92FF92CF93DF93EC01688179818A812F
:1050C0009B81611571058105910521F464E279EDFB
:1050D0008BE597E02DE133EF41E050E00E94FF289F
:1050E00049015A019B01AC01A7EAB1E40E941E29C3
:1050F0006B017C01ACEEB4EFA50194010E942C2958
:10510000DC01CB018C0D9D1DAE1DBF1DB7FF03C083
:105110000197A109B04888839983AA83BB839F77AD
:10512000DF91CF91FF90EF90DF90CF90BF90AF9045
:105130009F908F9008950E945228089580E091E0FA
:105140000E9452280895A0E0B0E08093000190935F
:105150000101A0930201B09303010895FB01DC015A
:1051600002C005900D9241505040D8F70895F9992A
:10517000FECF92BD81BDF89A992780B50895A6E12A
:10518000B0E044E050E00C94F128A8E1B0E042E047
:1051900050E00C94F128262FF999FECF92BD81BDE5
:1051A000F89A019700B4021639F01FBA20BD0FB665
:1051B000F894FA9AF99A0FBE08950396272F0E9441
:1051C000CC280E94CB28252F0E94CC28242F0C9479
:1051D000CC280196272F0E94CC280C94CB28DC01E8
:1051E000CB01FC01F999FECF06C0F2BDE1BDF89AF2
:1051F000319600B40D9241505040B8F70895052EF5
:1052000097FB1EF400940E94162957FD07D00E94B8
:10521000312907FC03D04EF40C9416295095409583
:10522000309521953F4F4F4F5F4F08959095809552
:10523000709561957F4F8F4F9F4F08950E9453291E
:10524000A59F900DB49F900DA49F800D911D1124DA
:105250000895B7FF0C941E290E941E29821B930BF0
:105260000895A1E21A2EAA1BBB1BFD010DC0AA1FA7
:10527000BB1FEE1FFF1FA217B307E407F50720F0BF
:10528000A21BB30BE40BF50B661F771F881F991F3A
:105290001A9469F760957095809590959B01AC0183
:1052A000BD01CF010895A29FB001B39FC001A39F8C
:1052B000700D811D1124911DB29F700D811D11244F
:1052C000911D0895991B79E004C0991F961708F065
:1052D000961B881F7A95C9F78095089587FB082E3D
:1052E000062687FD819567FD61950E9462290EF46F
:1052F000919507FC81950895AA1BBB1B51E107C03E
:10530000AA1FBB1FA617B70710F0A61BB70B881F55
:10531000991F5A95A9F780959095BC01CD010895E4
:1053200097FB072E16F4009407D077FD09D00E9452
:105330007C2907FC05D03EF4909581959F4F0895F8
:10534000709561957F4F0895EE0FFF1F0590F491C2
:10535000E02D0994692796276927782787277827DA
:1053600008950E945329332312F48A1B9B0B0C943B
:10537000BB290E945329B7FF0895821B930B089500
:10538000FC014150504030F001900616D1F73197A2
:0E539000CF010895882799270895F894FFCF3C
:10539E00010000006816A7166716A3169F160119BE
:1053AE001A1B1C1D1E1F20212201020101F0343583
:1053BE00366667F6F7939600FF0100010000FFFFC7
:1053CE000000010001FF00000102020202060606B3
:1053DE000909090909090F0F0F0F0F0F15151518D8
:1053EE0019191919191919191919232425252525DA
:1053FE00252540226D81055F05F204D305EC050CD1
:10540E0006818283E200E900EA00B500B600B7002B
:10541E00CD008301CC008A01920194012102230266
:10542E0024022502260227022A02B300B4006F00CE
:02543E007000FC
:00000001FF
